:10400000A84F0120D95D0300650B0200695B030026
:10401000A70A0A010041000004180FAC0066450021
:104020000000000000000000000000000000000090
:1040300000000000BC900300000000000000000031
:104040000000000000000000FFFFFFFFFFFFFFFF78
:10405000FFFFFFFF00A00700000000000020080095
:10406000FFFFFFFFFFFFFFFF8000000000000000D8
:104070000000000000000000000000000000000040
:104080000000000000000000507D0120507D012054
:10409000A84F01206AE10300F25D030048460120B9
:0C40A0004C11002000200800000000006F
:10410000A84F0120D95D0300650B0200695B030025
:10411000715B03006D5B0300755B03000000000032
:104120000000000000000000000000008FC7000039
:10413000795B03004FA700002BCB00005FEA000073
:10414000815B0300815B0300815B0300815B0300F3
:10415000815B0300D1BC020075740200815B030027
:10416000815B0300815B030019710200815B030026
:10417000815B0300815B0300815B0300815B0300C3
:10418000815B0300815B0300815B0300E3FE0000B1
:10419000815B03002B320300815B0300815B030022
:1041A000815B0300A534030095340300815B0300A9
:1041B000815B0300815B0300815B0300031103004B
:1041C000BF100300BD100300A10C03000111030088
:1041D000C1100300C5100300C3100300F15C03000D
:1041E00039110300815B0300815B030091C700006C
:1041F000815B0300815B0300815B03003F000100E2
:10420000815B0300815B0300815B0300815B030032
:10421000815B0300815B0300815B0300815B030022
:10422000815B0300815B0300815B0300815B030012
:10423000815B0300102510B5494A494C4A4B1B6865
:10424000234207D103408B420DD0521EF6D16FF0AE
:10425000020010BD4548034202D06FF0010C201649
:104260004FF0FF3010BD002010BD70B5404D6860AC
:10427000E8680E46410702D518200870BD56F804BC
:104280000B141F02E008101D241FA86044B1082170
:104290000820FFF7CFFF0100F4D00421296070BD92
:1042A000042028600021211612C4162304D10C100A
:1042B00005BDE87040BCE77054301341F671312AF7
:1042C0004C01222A4BE568E1621A606060022626F2
:1042D00030300B2D0CFFF7ABFF05F001050100039B
:1042E00036201CFFF7A3FF0121204A11600DB10009
:1042F00021E16270BD2DE9F843184F3D68894614ED
:10430000464A200A80462D0C39620122164B0020B5
:104310003A100B1A6009E0324649464046FFF79FC3
:104320007E501F0DD1B044B144A41B4CB108F50020
:1043300056760B7603A6EB0806B442ECD22646EA84
:10434000E70121095C10133962BDE8F283000080A7
:10435000969800060001001C000340020812100895
:10436000130C1004000120034000000080B54449F4
:104370000988444A002000F0B1FB5328A8BF52200E
:1043800002BD2DE9FE4300F072F800F052FD00F08E
:104390005EF8412200F060F800F063F8FFF7E6FFF6
:1043A0008146E0B2B04216DA3888C01C814512DB83
:1043B0006A46E1B2404600F03AFD50B1BDF8000057
:1043C00000F088FD9DF8020000F075FD2878401C83
:1043D0002870641CE5E735E02DE9FE4300F047F85E
:1043E00000F023FD00F033F8422200F035F800F031
:1043F00038F8FFF7BBFF8146E0B2B04222DA3888D6
:10440000083081451EDB6A46E1B2404600F00BFDF4
:10441000B0B1BDF8000000F05DFD9DF8020000F0B5
:104420004AFDBDF8040000F055FDBDF8060000F09F
:1044300051FD9DF8080000F03EFD2878401C2870D2
:10444000641CD9E700F0E1FA0120BDE8FE830646CE
:10445000019400960C4B70474FF48051092000F0F6
:104460007DBE398809484518002000F024BD044667
:1044700007480168074F0A6892F805804046704770
:10448000507C0120685E0120F45D0300745E012011
:10449000505F0120527C012080B501F053FAFF28C3
:1044A00005D0032803D2DFF8D417085C02BD002032
:1044B00002BDE0B50221009101AB0022032101F011
:1044C0009BFD20B9BDF8040010B1012000E00020E0
:1044D000C0B20EBDF8B5069F002400250646092F80
:1044E00002D300200021F4BDA4460DE0A7EB000E8E
:1044F000B6441EF8010C2D0245EA1465002110EBAC
:1045000004240CF1010C4D415FFA8CF0B842EDD35C
:104510009D4206D828BF944203D2101B63EB0501CD
:10452000F4BDA01A65EB0301F4BD10B50268DFF815
:10453000501713880B8054884C8052790A71036895
:104540001A794FF48A53CB804A71026893799A069C
:10455000DFF8302744BF4FF48B53CB808169137849
:1045600039B9C088DFF8201703F0FD030880137005
:1045700010BD43F002031370DFF810478169162263
:10458000204601F044FF0022227010BD80B50020BB
:1045900001F0A1FFFF2001F030FA01F0AAFF00F0C6
:1045A000ADFE02460121DFF8D40601F077FFDFF807
:1045B000D036DFF8DC265221DFF8D80600F0B9FD4E
:1045C00001F0E3FF02F0CEF802F094F903F030F9C5
:1045D00003F023FE03F044FEBDE8014000F065BF98
:1045E000704780B503F020FF20B905F0A1F908B9A4
:1045F00003F09AFB00F033FCBDE8014000F03EBC44
:1046000070B5034600204FF6FF72DFF88C4634F891
:10461000305095420ED09D4209D1B3F57C4F0ADB54
:1046200004EBC0056E888E4205D00D0003D0401CFF
:1046300080B2ECE7104670BD10B50446FFF7E0FF0E
:10464000DFF858164FF6FF720B88904203D12246CE
:10465000DFF84C1606E0DFF8401601EBC0004268B8
:10466000DFF840161846BDE8104005F03EBADFF806
:104670003806006800B1008A70471CB50446DFF8B0
:104680002C16087800283DD005F006FB0246DFF81E
:104690002016022005F029FA206841880091A2899D
:1046A0004379DFF81016022005F01FFA022005F00A
:1046B000D7F920B12068218A4088FFF7BDFFE07B51
:1046C00028B1228ADFF8F015022005F00EFAE07C0E
:1046D000DFF8E8150090A068A37C0278022005F0BE
:1046E00004FA217DA289A4680123521A92B22144BE
:1046F000022005F0E9FADFF8C8150220BDE81C40E9
:1047000005F0EDB913BD10B504462168487901F0F4
:1047100019F9FF281DD0DFF8AC1501EB0010217F3F
:10472000027B8A4215D1226840881188884206D0CF
:104730004FF6FF7399420CD1B0F5004F09DA20799A
:10474000022818BF032806D11189507905F014FDFD
:1047500008B9002010BDA07B0028204602D005F03B
:1047600059FD01E005F086FD00B1012010BD3EB508
:104770001446227855074CBF05220322934209D2E2
:104780000092DFF84425DFF84415022005F0A7F970
:1047900000203EBD089D069A28602971EA80AC6021
:1047A000AB81207800F00100A8732178890801F01E
:1047B0000101E973207801212975C00800F001008A
:1047C0006875E87B30B11A46204600F0E1FB297D90
:1047D000891C297507992882287D421C2A75205C2E
:1047E000531C2B75A874D2B2A05CA961E87406F0C2
:1047F0004AF8287701203EBD2DE9F14F84B00F46DD
:104800009246DFF8CC549B460E9EDDF83C8028464D
:10481000DFF8C014202206F0FDF802950498CDF8C8
:10482000048000965B46524639460024FFF79FFFFE
:10483000DFF87494002869D0C9F80050A87CDFF82C
:10484000981408702846FFF718FF2846FFF76DFEFA
:10485000284606F0FEF830BBB8F1000F25D1042F32
:1048600018BF052F03D0022F18BF032F01D101223B
:1048700000E00022E9882868019101214388009323
:104880000388E87C00F007F998B1286881798806E8
:104890000FD4DFF84844012121700022284600F09F
:1048A000BAF800202070012430E098F81400810745
:1048B0002CD528684179FF2924D10026DFF8C08350
:1048C00000F01CFDF1B2814220D2F0B201F03CF8C0
:1048D0000746F0B200F016FD90B128682A8A418898
:1048E000384600F07BFF58B12846FFF71EFE2868C7
:1048F000477188F804702846FFF705FF00B10124CE
:10490000761CDDE72846FFF7FEFE044600F0BCFA01
:1049100016220021DFF8740301F0C0FD0020C9F861
:104920000000204605B0BDE8F08FDFF8B41308782A
:10493000401C0870FFE700F07F007047DFF8441369
:104940000A78002814BF42F0010202F0FE020A7049
:104950007047DFF890130870704780B1DFF8841358
:104960000978012904D1018841F040010180704794
:10497000022904D102884FF6BF710A4002807047B5
:1049800078B1DFF864130A78012A04D1DFF85C23D8
:1049900013780B7001E0022A03D1017841F0100175
:1049A00001707047FEB5B74C2178CA0701D50020C9
:1049B000FEBDC94A1378B74A15786E074CBFD3704D
:1049C0005370B34B1D88890708D52946AF4806F0B8
:1049D00093FA217801F0FD012170FEBDAA4B1C88DD
:1049E0004FF6FC77A649BC4208DA009201900A46CD
:1049F0002B462146002006F065FCFEBD00901346C4
:104A00002A46204606F02DFCFEBD0020CAE70146DE
:104A1000A5480068002270B5044620790E46154668
:104A2000002818BF01280BD1A0680178CA0601D55B
:104A3000300005D0A07B002804BFE07C0B2801D10A
:104A4000002070BD0021924A1180607DE17B00282A
:104A50000CBF0820002011B900F02DFA06E040F04C
:104A6000040000F028FA208A00F034FAA07C00F05C
:104A700022FA0B2000F01FFAE07C00F01CFA30460E
:104A800000F019FA2046FFF750FD2846BDE87040B7
:104A900088E70022BFE770B51D46954B1C788F4E06
:104AA000012C01D0337813B10020307070BD0B00A1
:104AB00002D10AB1002070BD002C1EBF049C4FF62D
:104AC00057439C4206D003460A462146284600F03A
:104AD00059F900B1012070BD0000000038B5D2883E
:104AE00052240346950608464FF6FD7148BF4924F7
:104AF000550548BF083C150548BF083C120448BF8F
:104B0000A41E032B0ED8DFE803F00902060BC0B287
:104B100006F056FF02E0C0B207F08CF9014601E052
:104B2000641EE4B2084600F048F9241AE0B232BD2F
:104B30004254120A08444270704708440270110A35
:104B4000130C120E41708370C270704770B50C0068
:104B50000546164608BF002003D02178FF2902D160
:104B6000FF20287070BD204600F034FA864288BFCE
:104B700006463246611C681C01F049FC2E7070BD6F
:104B800070B505460C00164603D1002068702970E8
:104B900070BD2078FF2804BF6078FF2802D12870FC
:104BA000687070BD204600F01AFA864288BF06463B
:104BB0003246A11CA81C01F02AFC2E70360A6E7029
:104BC00070BD2DE9F041541E0BB3042A46DC0023CE
:104BD000002698465FFA88F5954225D2651B002885
:104BE00014BF10F805C04FF0000C571E4D5DA7EB29
:104BF0000807FF000CFA07FC05FA07F74CEA030365
:104C00003E4308F10108E5E7AE4224DB5B1CDDB260
:104C1000954223D2651B00280CBF0026465D4D5DE2
:104C2000B542F1DA01201AE0042A10DAD500012099
:104C3000D2006D1E00FA02F2524243FA05F1CC078F
:104C400046FA05F048BF1343C00748BF16439E42CB
:104C5000E8DBB34202DA4FF0FF3000E00020BDE8AD
:104C6000F0810021234A01E0891CC9B2535C8342D0
:104C7000FAD3501840787047000000002C5F0120E4
:104C8000685E0120027D0120507C0120545F0120DC
:104C9000527C0120745E01205C7C0300567C012064
:104CA000C47B0300DC7B0300505F0120AC57012074
:104CB000E47B0300EC7B03000C7C0300187C030006
:104CC000CCDD0300CC5C0120547C0300387C030065
:104CD000305F0120AC7C0300B0570120FE7C012036
:104CE000B1570120FF7C0120007D0120017D0120C2
:104CF000AF570120CC7C0300283808288041C00F22
:104D0000704710B500F009F8FF2801D1A32010BDAD
:104D1000002104F83010002010BD0446084600F0C1
:104D200011BE38B500F00BF8FF2801D1A32032BD29
:104D3000294604EBC000BDE8344001F056BC0446EF
:104D40000846154600F0FEBD40B11C280BD01D28BA
:104D50000CD01E2818BF1F2805D009E00B391029D8
:104D600006D2002070471B29FBDB01E00929F8DB94
:104D70008A2070477047012070470120704701204A
:104D80007047704700207047002070470020704730
:104D900000207047002070470020704701207047B6
:104DA00001207047B52070470020704700207047F1
:104DB0000020704700207047704700207047002097
:104DC00070477047002070478420704770477047D5
:104DD00070477047704770477047002070477047B2
:104DE0007047704700207047704707F0E1B9032013
:104DF000704700207047034801680878012808BF01
:104E000002207047C85E0120002070474FF6FE72F6
:104E10000121C2818181016100220270012070475D
:104E2000704770477047002070470020704700208F
:104E3000704700207047704700207047704700207F
:104E40007047002070470020704700207047002006
:104E5000704700207047002070470020704770475F
:104E6000B520704700207047002070477047002031
:104E7000704770477047B52070477047704770475C
:104E8000002070477047704780B500204B4908707C
:104E900007F039FA4A4A108052220021494801F0AD
:104EA000FDFA0020484908800C2200214748BDE84F
:104EB000084001F0F3BA10B543490A88522A07DACC
:104EC000404CA054521C0A8092B2A018401E10BD43
:104ED000002010BD38B50546C0B2FFF7ECFF044610
:104EE000280AFFF7E8FF002C18BF002801D0204651
:104EF00032BD002032BDF8B50746C0B2FFF7DBFF78
:104F000006463804000EFFF7D6FF05463802000EAD
:104F1000FFF7D1FF0446380EFFF7CDFF002E18BF74
:104F2000002D05D0002C18BF002801D03046F2BD5E
:104F30000020F2BDF8B5244D2B880C462646F71804
:104F4000522F0CDA1F4F01462246F81801F05FFA83
:104F50002B88E4182C80A4B2A41B3819F2BD0020C1
:104F6000F2BD30B504461D4600205B189A4207DAB0
:104F700030BD5218224412F8013C6D1E03EB002094
:104F8000EAB2002AF5D130BD0423EAE70323E8E7BB
:104F900080B50223FFF7E5FF80B202BD03460C484F
:104FA000914200D3704710B55C5CFF2C08BF002411
:104FB0006418641CA242A8BF581810BD027D0120CD
:104FC000507C0120745E0120527C0120685E01202B
:104FD000547C01200078FF2808BF0020704780B56E
:104FE00002220021FFF7D4FF4FF6FF72904208BF64
:104FF000002002BD2DE9F24F022940F395801900EF
:1050000005D0BDF800100529F7DB42F00402824606
:1050100001268AF80020180005D08AF801301B0A02
:105020008AF8023003260A9CFFF77FFC0AF8060084
:10503000761CB0B20AF80040761C4FF0000BDDF889
:10504000309007E0BAB24146504401F0E0F9BE1991
:105050000BF1010B0B985FFA8BF1405C002865D0D7
:1050600000250024A046732834DC4C2859F8048B12
:105070001CBF5328622811D159F8047B4C2806D153
:10508000BDB24FF6FF70854236D0022434E053287B
:1050900032D1FDB2FF2D2FD001242DE06C2804D198
:1050A0004046FFF79CFF871C26E0732804D140464A
:1050B000FFF790FF471C1FE0A0F130010A2938BF1D
:1050C000A0F1300718D3A0F1410107292CD2A0F19B
:1050D000370711E00027752808BF01240AD0762879
:1050E00008BF022406D0782808BF032402D07728FE
:1050F0001AD1042459F8045BBDF80010B2B2B8B25A
:105100008218A218914205DA0EE00AF80050761CC7
:105110002D0A641EE1B2B0B20029F6D1B9B200295D
:1051200096D0B8F1000F8DD1002000E0B0B2BDE8FC
:10513000F28F10B54A4C20604A4801804A490A6003
:105140004A4A136010BD7FB50C46089909AD00931B
:1051500002951346019100F017F808E07FB50C4660
:1051600008A90092029100F00FF801930023FFF7C5
:1051700041FF3D490A683D4B108019684FF48A523F
:105180004C80CA8004B070BD0246364D344E29882A
:105190003068704738B50346334C3148256802689B
:1051A00032482988006801B0BDE8304006F0B6B842
:1051B0000020EFE77FB500F028F806F000F804B013
:1051C00070BD0023F6E710B52548274B02681C6820
:1051D000264800682188BDE8104006F009B87CB573
:1051E00001921F4A1468204D2E6800941F4C33888A
:1051F000226806F067F876BD0022F0E77FB500F080
:1052000004F806F043F804B070BD174C009125680F
:105210000293134901920B68144E2A883168704733
:105220000023EBE7F8B50E4D2E6884B00A9C039678
:105230000D4F3E68358801940C4C266802957588A0
:10524000009506F09FF805B0F0BD0848006870476B
:10525000064A136818711068417170470000000019
:105260005C5E0120EA780120605E0120645E01201E
:10527000DFF8DC18F0B50A6888B0DFF8D81803A8A2
:105280000260D1E90027DFF8D018DFF8D04804A881
:10529000D4E90056C0E900270A6801A806AB0260FD
:1052A000C3E900560320DFF8B81802AB00240870E9
:1052B0001C6000940021DFF8AC0806AEDFF8A828D7
:1052C00003AC02EB0112655C04AC157036F81130CA
:1052D000538034F8113002AC9380655C01AB95715A
:1052E0005C5C00EBC40595601DF801400125491C7C
:1052F000147355730229E1DD08B0F0BDDFF86008D2
:1053000000787047DFF8601801EB0010407B00F078
:1053100001007047412818BF422803D0432818BF16
:10532000442801D10120704700207047412818BF50
:10533000422801D10120704700207047432818BF40
:10534000442801D10120704700207047F8B5154668
:105350001E46069A079B044600F055FA60B10421E8
:1053600000F057FD070007D0204601F0B9F832469B
:1053700029462046B84794E0F1BD2DE9FC471400CA
:10538000814688461F461CBF0A9D002D1FD0F7B1DD
:1053900028780C9B0107618820794CBF402280222D
:1053A00000F031FA98B1082100F033FD824670B167
:1053B00020790B9E01F094F8009501963B46224619
:1053C00041464846D047BDE8F34701F092B8BDE8F2
:1053D000F387F8B5069C16461A460546234600F0A4
:1053E00012FAD0B121000BD1022100F012FD04000D
:1053F00013D0284601F074F831462846A0470BE048
:10540000102100F006FD070007D0284601F068F8DB
:10541000224631462846B84743E0F1BD2DE9F8431E
:10542000089C90461A460646234600F0ECF908B957
:10543000862016E000259CB9202100F0EAFC814678
:1054400070B10B9F0A9C099D304601F049F8009706
:1054500023462A4641463046C847054601F049F8EA
:105460002846BDE8F283F8B504462078A5680026F2
:1054700001F036F811E0F1B21422286851434718C0
:1054800039882078FFF77DFC0121384600F0C1FC07
:1054900001001CBF20788847761C2979F0B2884229
:1054A000E9D3BDE8F14001F024B838B50024DFF8B5
:1054B000B0560AE0DFF8440A210600EB1150427BA7
:1054C000D10748BFFFF7CFFF641C2978E0B28842BC
:1054D000F0D331BD5CB585B00A9C00268DF808007C
:1054E000ADF80A108DF80C30ADF80E200196ADF82D
:1054F000104000960023002201A902A800F083F8C2
:10550000019807B050BD7CB5069D1C4696782B00CF
:1055100008BFD378412E18BF422E06D0432E09D1A2
:105520009A1E92B2FFF72CFB16E05A1ED2B2FFF77A
:105530000DFB11E0442EF3D034B92C0004D0D27806
:10554000954201D2892076BD00291A4602D100F089
:10555000A5FF01E000F05BFF002076BD10B5002341
:1055600001E0001D5B1C9CB28C4204D20488944272
:10557000F7D1408810BD002010BDDFF88419401A13
:105580000C2290FBF2F20021DFF8780910E002888B
:10559000B2F57C4FA8BF00F002B80846EDE7DFF88F
:1055A0006819401A142290FBF2F20021DFF85C091E
:1055B00092B2D3E710B50C460188628891420DD1B2
:1055C000037B2279134209D0B1F57C4F04DBFFF74E
:1055D000E6FF2189884201D1012010BD002010BDC5
:1055E00010B514460A88E3889A420AD10288B2F5B7
:1055F0007C4F04DAFFF7CBFF2189884201D10120DB
:1056000010BD002010BD2DE9F74F82B004469A4628
:105610000025002703E0C88845197F1CFFB2DFF88A
:1056200040150A78974280F0A380DFF83C0500EB34
:1056300007102378027881689A42ECD10091407B70
:10564000C107EAD54FF0000804E0B9F80A0045198F
:1056500008F1010800995FFA88F00A799042DCD2DB
:105660000A685FFA88F114204843214602EB0009DA
:105670004846FFF79FFF0028E7D04FF0000B07E0F8
:1056800030790BF1010B10F0300F04BFF0784519A1
:10569000B9F808101FFA8BF08842D9D21FFA8BF2A2
:1056A0000C21D9F804004A43861822463146484660
:1056B000FFF796FF0028E3D003982746344600B151
:1056C00004602079810610D5DFF83408002105E058
:1056D0000279930644BFC27851180C30A042F7D328
:1056E000DFF82C0889B2461803E0DFF82818ADB2BD
:1056F0004E19DDF83880049D4046B8F1000F1BD0EC
:10570000019521464846FFF742FF024623887988E3
:105710003878DFF804B8FFF732FBF0B12079C10622
:105720001DD521464846FFF732FF0095034679888C
:1057300038782246D8471CE0DDB12146484601961C
:10574000FFF725FF02462388798838782E46DFF850
:10575000CCB7FFF712FB0028E0D17E2009E00199C9
:10576000CDF800A0434622463046FFF7CCFE00E0CD
:10577000862005B0BDE8F08F2DE9F8430446884641
:105780001646994600252179E8B2884221D2EAB22C
:10579000142320685A4387183888404517D13100B0
:1057A0000AD0802E03D1397B0A0605D40FE0402EA3
:1057B0000DD1397B4A060AD5B0F57C4F0CDB384653
:1057C000FFF7EDFE484518BF5FEA090004D06D1CE5
:1057D000D9E70020BDE8F2833846FBE7134680B5E1
:1057E00007E0134680B5402204E0134680B58022CE
:1057F00000E0002200F007F800B1012002BD80B5F2
:1058000000234022F6E770B50C4615461E4600F010
:1058100099F8FF2801D1002070BD06E070B50C4654
:1058200015461E46002100F035F82146DFF8CC462B
:1058300004EB001033462A468068BDE870409BE7C1
:105840001346402201E00022FAE72DE9F84F824694
:105850008B46904699460026FFF7D5FF08B9FF20F2
:1058600016E00027DFF80043DFF8F4522978F8B299
:1058700088420CD20001205C504508D04B4642467D
:105880005946FFF7CBFF00B1761C7F1CEEE7F0B264
:10589000BDE8F28F70B50022DFF8CC32DFF8C052DD
:1058A0002E78D4B2B4420BD224011D5D854205D1BD
:1058B0000D0007D01C44647BE50703D4521CEDE7C0
:1058C000FF2070BDD0B270BD80B50021FFF7E2FFB0
:1058D000FF2801D1002002BD00F061F8407B00F0FC
:1058E000010002BD70B50E4604460021FFF7D2FF4D
:1058F000FF2801D1002070BDDFF8001601EB001574
:105900003200687B00F0010114BF40F0010000206C
:105910006873B14214D076B12846FFF7A4FD0FE0BA
:10592000142200685143761C0844027B01882046FB
:10593000D20900F0B9FEA868F1B202799142EFD322
:10594000012070BD0121A5E7DFF8B0150001085C5A
:105950007047F8B50C46FFF7F5FF01460020FF2918
:105960001FBFDFF8982502EB01118968002915D0C7
:10597000002214270D79D3B2AB420ED2D6B20B68F7
:105980007E43451C33441B7B260001D11B0600E0EF
:105990005E0648BF2846521CECE7C0B2F2BDDFF8F5
:1059A0005C1501EB00107047F8B50C461546FFF783
:1059B000C9FF01460022FF291DD000234FF0140C1F
:1059C00001E0521C5B1CDFF8340500EB0116DFB26E
:1059D000B0680679B7420ED200680CFB07F738446E
:1059E000067B15B1760602D4ECE73706EAD5D6B2C7
:1059F000A642E6D1F2BD0020F2BD002109E010B5BB
:105A00000446012100F005F82046BDE8104005F0ED
:105A10001FB82DE9F14F88B0894604F034FF504992
:105A20000A780023069005928DF80430DFF8CCA4A4
:105A30000AE00AEB0010017B0698814214D09DF821
:105A40000400401C8DF804009DF80400059988426C
:105A500058DA9DF82020FF2AEBD01046FFF772FF9E
:105A60008DF80400FF2854D0002756E00328ACBF6F
:105A7000D6F808B006F1080B0120009000235A4622
:105A8000002102A8FFF7BFFD5FEA090007D0BDF8BB
:105A90000A201AF808103346584600F002F9641C30
:105AA0002989A0B2884237D2A2B20C2168684A4341
:105AB00086183379D906F2D41AF808208DF8082010
:105AC0002988ADF80A103079410628464CBF80215C
:105AD00040218DF80C103188ADF80E103146FFF7DB
:105AE00056FDADF810003179F0784A07BED5D6F8EA
:105AF00008B00328C0DBDBF800B0BDE79DF820004C
:105B0000FF289CD0B9F1000F04BF9DF8200000F0E1
:105B10002DF809B0BDE8F08F7F1C9DF80400F9B2A4
:105B20004FEA00180AF1080050F808000279914283
:105B3000E4D20168FBB214204343CD182A8940F215
:105B40002D118A42A8BF06F049FE0024A8E70000F4
:105B5000146B0300206B0300286B0300186B030019
:105B6000F97C012094710300CC5C01207CB50446D3
:105B700004F089FE0546012000F0C8FC44F203064B
:105B8000012C03D0FF2C08BFA84227D101237F227C
:105B9000212100F083F800F078F800F07BF8012371
:105BA0007F22222100F07AF83020009001AB3246AB
:105BB00000F070F801237F22232100F06FF82020ED
:105BC00000F064F8082100F066F801237F22242108
:105BD00000F064F800F052F800F05DF8022000F0E8
:105BE00095FC022C03D0FF2C08BFA84240D1012312
:105BF0007F22252100F052F800F047F8062100F03E
:105C00003AF801237F22262100F048F83020009046
:105C100001AB3246062100F02EF801237F22272116
:105C200000F03CF8202000F031F8082100F023F8C3
:105C300001237F22282100F031F800F01FF800F046
:105C40001AF802237F22292100F028F82120009051
:105C500001AB072200F00DF802237F222A2100F079
:105C60001DF82120009001AB44F2100200F001F871
:105C700073BD4FF44071022000F091B920200090D4
:105C800001AB4FF48042082170471020009001AB17
:105C9000002270470621012000F081B901A806F01A
:105CA000A1BE2DE9FC4104461D4628790E46174643
:105CB000830740F1A58002220021684600F0EEFB38
:105CC00004B96C4644F20308012E3AD1062F1AD1CA
:105CD000288850B900F09AF838B92879410604D4D8
:105CE00000F090F8212006F0A8FE288840450BD14E
:105CF00000F08CF8002807D1287941061CD400F068
:105D000081F822207AE0082F7AD1288850B900F053
:105D10007DF838B92879410604D400F073F82320BF
:105D200006F08BFE2888B0F5804F69D100F06EF840
:105D3000002865D12879410662D400F063F8242058
:105D40005CE0022E5CD1062F1AD1288850B900F0F1
:105D50005DF838B92879410604D400F053F82520BD
:105D600006F06BFE288840454AD100F04FF8002825
:105D700046D12879410643D400F044F826203DE07E
:105D8000082F1AD1288850B900F040F838B928797E
:105D9000410604D400F036F8272006F04EFE28888D
:105DA000B0F5804F2CD100F031F848BB287941067E
:105DB00026D400F027F8282020E0B7F5407F1FD137
:105DC000288807280BD100F021F840B9287941062E
:105DD00005D4022322467F21292006F02EFE2888A2
:105DE00044F2100188420BD100F010F840B9287934
:105DF000410605D4022322467F212A2006F01DFEFB
:105E0000BDE8F381012322467F2170472846FFF732
:105E1000B4BB30B5047B012200230C4205D1002025
:105E200030BD144218BF5B1C5200D5B28D42F8D36E
:105E30000069DBB250F8230030BD3949401A8003B5
:105E4000020C00213748FFF789BB2DE9FE4F0027E0
:105E500000284FF00108487D06D008B9022407E069
:105E6000012804D1012403E008B9082400E0042437
:105E70000E980C9DB9460D9EDDF83CB08A46ADF8F3
:105E800000200193ADF830508DF83800244800EB25
:105E900089052988BDF80000814224D1E978214292
:105EA00021D0A9789DF8380081421CD3E9789AF86E
:105EB0000F00CA0608D5B0B12846FFF7BEFFBAF8F2
:105EC0001010814201D00EE068B9BB4513D0BDF877
:105ED000300087420FDAA9780198C15532887F1CBB
:105EE000BFB2521C328009F10109B9F14B0FCDDB71
:105EF0004046BDE8FE8F4FF00008F9E7CC5C01207A
:105F0000906C0300B071030068700300AC71030073
:105F10009C5D0120FC5C0120A14D00009D4D000016
:105F2000606B03008C6C03002DE9F84785B0109D71
:105F30000F9F0E9C0295019706468A469046994609
:105F40000094FEF718FF010003D0022803D002D30B
:105F500010E001200EE00CBF012000200021049180
:105F600003900295019700944B46424651463046B5
:105F700000F07AF906B0BDE8F087F0B585B00A9D6B
:105F80000B9C002601270496039702940195009626
:105F900017E078B585B000F00BF8802304E078B501
:105FA00085B000F005F8402300F05EF906B070BD42
:105FB0000A9C0025012601930495039602940095FE
:105FC000704700F051F905B0F0BDF0B5012785B07C
:105FD00004970A9D0B9E0C9C002703970294019640
:105FE0000095EEE77FB5099C089D0A9E0294002467
:105FF00003960195009410E038B584B000F006F8DF
:106000004023FFE700F0E2F905B030BD089C002511
:106010000193039502940095704700F0D7F904B0FE
:1060200070BD2DE9F84F84B0DDF8389090461C46DD
:1060300005468A464B4622460026ADF80060FFF72B
:10604000E2FBB34607008DF80450ADF806A08DF8CA
:106050000840ADF80A80ADF80C904FD001A9FFF7C9
:10606000A9FA00284AD0ADF802800024DDF83C905F
:10607000DDF840A0BDF8008015E0B1B249450FD26F
:10608000FEF728FFA878FEF716FF5FEA0A0006D0A1
:106090002879C10754BF05200720FEF70CFF761CA6
:1060A00008F10108641C3989A0B288421ED2A2B24C
:1060B0000C2178684A433B888518B3F57C4F09DA90
:1060C000288801AA2946ADF80A003846FFF788FA61
:1060D0000028E7D02888BDF802108842CDD20BF105
:1060E000010BDDE7002005B0BDE8F08FB6B21FFA66
:1060F0008BF006441FFA88F08642F3D10120F2E7C4
:106100002DE9F84795B04FF00009DFF850A101E004
:1061100009F10109FFF7F2F85FFA89F1814236D2FD
:10612000002738E0A078FFF709F9D0B104A8FEF7FE
:1061300056FF16E0002103914122029204A9019129
:106140000090228829881AF8080000F03FF9862874
:1061500007D0A078FFF7EAF80028E3D004A8FEF7FC
:1061600039FF761C2989B0B2884213D2B2B20C2111
:1061700068684A43841806F031FB21462846FFF739
:1061800006FA21794A064CBF80234023D2E716B095
:10619000BDE8F0877F1C4FEA09604FEA10580AF10A
:1061A000080050F80800F9B202799142B0D20168B3
:1061B000FBB2142043430026CD18D3E7F8B596B0C0
:1061C0001D9C1546042C3FDD04AE039641271C9A06
:1061D000029705AE019600922A4600F0F7F80600F5
:1061E00034D19DF81000412818BF422804D105A8D9
:1061F000FEF7F0FE461C0BE0432818BF442804D1EC
:1062000005A8FEF7ECFE861C02E006F073FC0646CD
:10621000F6B2301D844217DB2846FEF75BFE0020F5
:10622000FEF749FE9DF810000D4CFEF744FE208855
:106230003118522908DA0B4B324605A9184400F0F0
:10624000E6F820883618268017B0F0BD2846FEF7FD
:1062500041FE3046FEF72FFEF6E70000CC5C012041
:10626000527C0120745E01202DE9F84F88B0129C09
:106270000546894692469846002004908DF81450B1
:10628000ADF816908DF81880ADF81AA0ADF81C4046
:1062900000900023002204A905A8FFF7B4F9049890
:1062A00008B9862082E0159860B904999DF85000DD
:1062B0008A78904218BF8D2078D10979C80758BFD5
:1062C000882073D50498139E0179480726D5049930
:1062D00088684168049802918168886804990190EF
:1062E0008878FEF709FD834604985B46C1788DF8EF
:1062F000001003290A4631462ADA02A8FEF761FC9B
:106300009DF8002007465B46314601A8FEF759FC80
:10631000012F1CBF4FF0FF31884228D0169800286B
:1063200043D100F046F8FEF78AFD01003ED100F0AF
:1063300040F8FFF773F8010038D1012000900023E6
:106340003246002105A8FFF75EF9010011D02DE0CB
:106350000298FEF736FC012809D09DF8002001982C
:106360005B463146FEF72DFC10F1010FD6D1872098
:106370001CE0049B4A4629463046FFF792FC0296F1
:106380009DF85000009443460190524649462846E5
:1063900001F0E2FC00F00DF8FEF750FD00944346DA
:1063A000524649462846FFF714F8002009B0BDE8D8
:1063B000F08F0396049843465246C1789DF85000EA
:1063C000029100940190494628467047F0B585B087
:1063D0001C460A9E0B9D0C9B002701978DF8080018
:1063E000ADF80A108DF80C40ADF80E20ADF8106035
:1063F00000972A4601A902A8FFF705F9010004D178
:106400000D9911B1019A93780B7005B0F0BD70B57C
:10641000814224D210441144401E491E10E011F85C
:106420000139121F00F8013911F8014900F801493A
:1064300011F8015900F8015911F8016900F80169D2
:1064400093B2042BEBDA93B2002B1EBF11F8013983
:1064500000F80139521EF6D170BD00F00DF893B26C
:10646000042BFADA93B2002B1EBF11F8013B00F89F
:10647000013B521EF6D170BD11F8013B121F00F80E
:10648000013B11F8014B00F8014B11F8015B00F8DA
:10649000015B11F8016B00F8016B7047130003D02A
:1064A0000A46194606F038BB704710B5034600E0AF
:1064B000521E90B218B100F003F8F9D0001B10BDC5
:1064C00013F8010B11F8014BA04270470C480D491D
:1064D00008600020704700B17020704700207047AE
:1064E00080B500F013F8FF2801D1A32002BD0020E1
:1064F00002BD00207047704700BF03480078704716
:1065000076C20300C85E0120CC5C012080B5FFF795
:1065100019FAFF2818BF002002BD00210170704742
:1065200000F071B870B5044616460D463046FFF7C8
:10653000D7FF002020703046A847BDE87040FFF725
:10654000D8BF012247494848ECE70122474948485B
:10655000E8E7012247494848E4E702224149474821
:10656000E0E7022241494648DCE70222414945482A
:10657000D8E7012244494548D4E702224249444829
:10658000D0E7F22240494348CCE780B5012006F02D
:10659000DFFB414806F070FB4049087001BD80B543
:1065A00006F0EAFB012805D03C480078BDE802402F
:1065B00006F04DBB01BDF0B5002400E0641C384D71
:1065C0002E88E3B2B3420ED2E7B20C256F43354BAF
:1065D0003B441E78864201BF5D888D421E799642FB
:1065E000ECD11846F0BD0020F0BD80B519B906F019
:1065F000AFFA002002BDB1F1004F02D206F0B2FAAC
:10660000F7E7022002BDB1F5000F3CBF0902FFF71A
:10661000ECBF0220704770B505461E46FFF7CBFF62
:1066200004000ED02846FFF74FF950B1A06831465C
:10663000FFF7DBFF28B904990598A071617100206C
:1066400070BD022070BD1CB5049C009313460194DC
:106650000022FFF7E0FF16BD80B500230093FFF78F
:10666000F2FF02BD5F960200345C0120B39A020083
:106670003C5C0120C99E0200445C01204C5C01206E
:10668000545C01205C5C0120A1970200645C012045
:106690006C5C0120745C0120EC650300A77B012089
:1066A000805701200051012080B5FFF784FF20B101
:1066B000806800210170002002BD022002BD00227E
:1066C000F2E7704780B57B49022003F008FAFF200B
:1066D000FFF795F9FF2003F050FDFF2006F024FF9F
:1066E00000F040F8FEF79DFB00207349088001BDD3
:1066F000F8B500F069F8009805B000F0010000BDA1
:1067000018B587B000226C4B1A8001A9684605F0C5
:10671000BBFF9DF80F00694C0822A070BDF80C006B
:1067200001A92080201DFFF772FE9DF814000022B1
:10673000002160732046FEF775FB08B010BD80B5E0
:10674000684605F0ABFF932809D15D4801680A78D7
:10675000012A8DF8002004BF02218DF800109DF859
:10676000000002BDF8B507F051FA002814BF002060
:10677000022007F0A8FE534807F0AFFE524807F08A
:10678000AFFE00F021F80098C1071BD54F49022049
:1067900003F0A5F94A4801680878012808BF0220DB
:1067A00007F051FB07F034FA00F00EF8009840F0C3
:1067B00080000090684607F065FE00F008F80320AE
:1067C00003F022F905B000BD684607F051BE78B568
:1067D0008FB005A83E49282204F01CF905F097FD6A
:1067E00008B100201AE001A803F0FFF80400394DB9
:1067F000394E02D00090394B0AE005A8FEF710FB95
:1068000005A901A807F0EBFA040006D00090344B6C
:1068100032462946022003F062F9204610B070BDCE
:1068200080B52548018841F40071018007F09BFE86
:1068300048B102462B49022003F051F907F0EBFD65
:10684000BDE801403EE701BD1FB504461A48008877
:1068500010F08F0F11D0902C02D1FFF751FF1FBD08
:10686000912C25D002902048009001941F4B1A4A89
:106870001F49022003F033F91FBD800504D5912C78
:1068800016D1FFF71FFF1FBDFFF79EFF902C0FD102
:106890000098C1070CD542085200009200210191D6
:1068A0000291ADF80C10684607F0ECFD08F0CBF84B
:1068B0001FBD0000E4600300DE780120445B01207E
:1068C000C85E0120008810020070EF05B46003006C
:1068D00000610300286103003C6103004461030080
:1068E0005C61030074610300DC610300C4610300A8
:1068F000A46103001CB5DFF8AC4A0A22002120463F
:10690000FFF7CCFD60220021DFF8B40CFFF7C6FDD5
:10691000A0206080052120208DF80410009001AB9C
:1069200010222121F220FFF734FB13BD0020DFF8F5
:10693000741A00B508704FF0FF3187B00491002140
:1069400000238DF81800039002900191009304AA8F
:1069500008F0F0FB07B000BD18B5DFF8484A207A10
:1069600087B0C10710D5002204928DF8182008F0D6
:106970006BFF002000210023207203910290019000
:10698000009304AA08F0D6FB0020DFF8381C08703A
:1069900008B010BD80B5FFF7C9FF0020DFF8281C44
:1069A000087001BD2DE9F04700F00108C0F3420472
:1069B0008946924606094509DFF8100C016806F081
:1069C000010605F001050A685079F22826D1DFF8A2
:1069D000D479387820B109F060FAF98888421DD15D
:1069E000B8F1000F18D009F058FAF8800120A02162
:1069F000E207387079807C7046BF4FF47A7101FBF2
:106A000009F1DFF8CC1B7D71DFF8BC0B06F0AAF8AA
:106A100026B187F804A001E0FFF788FF0120BDE858
:106A2000F087002070472DE9F34F8FB007461546D9
:106A30009846DDF884900AA8142109F04FFA780AE4
:106A400000F0030AC7F341108DF81800F80A00F0AF
:106A5000070BDFF8900B002438400828DFF86C0B98
:106A6000016808BFA1460A79042A08BF01242B0047
:106A70001A9D08BF0AAB05B90AAD1F9E06B90AAE3A
:106A8000109ACDF8008007F0070107A809F0C2FAB4
:106A9000002854D0DFF8501B012003F026F800F046
:106AA000F1F84CD1BAF1010F49D09DF82400C0B1E2
:106AB000022844D10022082107A802F087FF0028FD
:106AC0003DD107F01800182839D0ABF10500022895
:106AD00035D39DF8180068B9F8060BD47CBB852027
:106AE0002BE0079858B310F1070FEAD310F1010F0C
:106AF00025D1E6E71E9A20981C9904921B9B9DF8CD
:106B0000182001900091CDF814900396029507A9E2
:106B1000384609F0F8FD38B1DFF888084178880771
:106B20000DD5FFF703FF0AE0380708D509F01FFB72
:106B3000FF2808BF002C02D18920FDF768FF012043
:106B400011B0BDE8F08F2DE9F0438FB08146884643
:106B500016461D46169C0AA8142109F0BFF904B96F
:106B60000AAC00F08FF84ED1189F2946179A199D4C
:106B7000F02F49D0F32F61D100228DF82420079205
:106B800000293CD109F0C1FF80453AD1DFF8345AE1
:106B90002878DFF8104810B1207A810764D505F015
:106BA000B8FB0B3840F0100004AA01238DF8100048
:106BB00000210192009303910291F32307AA01207F
:106BC00008F0B8FA0120207205F0A3FB06F10B01D2
:106BD00088420BD001200B3600FA06F10022032078
:106BE00008F07BFD207A40F0FD0002E0207A40F0C2
:106BF0000200207241F28831284605F0B3FF0120DF
:106C000033E0FFF7A9FE2FE019F007008DF8180018
:106C100008BF049101D000F02BF809F076FF804501
:106C200003D100F036F8F0231AE000200021002301
:106C3000039002910190009304AA13E0F72F03DA66
:106C4000A7F1B003102B0FD219F003008DF8180034
:106C500008BF049101D000F00BF800F01AF83B4691
:106C600004AA012008F066FA00200FB0BDE8F08306
:106C700002218DF818108DF819200822214604A849
:106C8000FFF7C5BBDFF8440901680A685079F228AC
:106C90007047002000216A1C0390029101922B781A
:106CA00000937047002070472DE9F0470446626862
:106CB0008846002192B24046FDF73AFF207C08F159
:106CC000020530B9A26800212846FDF736FF2D1DC8
:106CD00007E0022805D1082204F1080100F09EF81F
:106CE0000835207C022804BF607C05F8010B616830
:106CF000880403D5A28A00F096F8AD1C60684104B0
:106D00000FD5A07D002105F8010BA26928462D1D95
:106D1000FDF713FF102204F11C0100F07FF810357D
:106D200007E0800605D5A26900212846FDF705FF8A
:106D30002D1D20794FF00C0A41060ED500F05EF8AB
:106D400000F061F805D100F067F800F06AF800F093
:106D50004EF87F1CF9B20229F2DB6068C10517D535
:106D600000F04CF8FAB20AFB02F204F12C018E1882
:106D70003378022B08D1728800F055F8B288AD1C28
:106D800000F051F800F033F87F1CF9B20229E9DB7A
:106D900004F14400017805F8011B227902F0180281
:106DA000182A1CBF407805F8010B6268100403D54F
:106DB000120C00F038F8AD1C6068C10312D500F069
:106DC0001DF800F020F809D100F026F800F029F8AD
:106DD00099F80000AD1C0A3089F800007F1CF9B258
:106DE0000229EEDBA5EB080188B2BDE8F08799F82F
:106DF0000000AD1C401C89F8000070470027A94620
:106E000005F8017B7047FAB20AFB02F204F12C018B
:106E10008E183378032B70470822B11C2846FFF7E1
:106E2000F6BA7289083500212846FDF781BE2DE9A2
:106E3000F84F0F46B6B000F00701C0F3C1008DF85F
:106E4000041000909346984607A8142100260025B8
:106E500009F044F8DFF874170968BBF1000F0879EE
:106E600008BF0DF11C0B00284DD109684879F228A4
:106E70003CD10FA9E8B209F0FFF8002836D19DF8FF
:106E80003C00FF2818BF761C6D1CE8B20428F0DD1A
:106E90009DF80001F4B2DFF81C5906900098DFF865
:106EA0001899DFF818A960BB9DF804103A46CDF890
:106EB00000805B460CA809F0ADF8002800F07F8048
:106EC0000CA809F030F90646FF2822D00020012244
:106ED000FF2305900490039202930194009000F028
:106EE00074F80FA9304609F0C7F800286BD128883C
:106EF00009EB00010FA8FFF7D7FE2988401828806A
:106F00005BE0009801285AD19DF80001F6B2B0422A
:106F100009D3002105910491039106998B220291D6
:106F20000194009247E00020059006980021FF227E
:106F30000491039202900194009100F046F800271A
:106F40000024B8469DF800B10FA95FFA88F009F057
:106F500093F8002837D19DF83C00FF2815D07F1CFE
:106F6000FAB2934511D221A90FA8FFF79DFE06465C
:106F70002888311852290ED2324621A94844FFF7F9
:106F800046FA2888641C36182E8008F101085FFA3A
:106F900088F10429D8DD89F80640FDF736FD74280C
:106FA0000DD100200590039006980021FFB20491B6
:106FB00002900197009100F008F8FDF726FD0120EE
:106FC00037B0BDE8F08F0020FAE753460B222121AD
:106FD0000120FEF7C3B8F2282DE9F04F4FF0000A68
:106FE000A7B008BF2129D0464CD1112A02BF802B5F
:106FF0003098002846D1319D052D43DD1120FDF745
:1070000069FFDFF8B04726880027DFF8AC97361D08
:10701000B6B2B3466946F8B209F02EF830BB9DF817
:107020000000FF280FD012A96846FFF73DFE8046FA
:10703000301885421CDB424612A909EB0600464483
:10704000FFF7E5F9B6B27F1CF8B20528E2DBA6EB44
:107050000B065FEA0A000ED10020FDF72CFF43204B
:10706000FDF729FFB0B2FDF735FF06E000200AE08A
:107070004FF0890AEBE7FDF71EFF20884FF001086B
:1070800036182680404627B0BDE8F08F2DE9F04F36
:107090008BB0C44E307868B10A93187A002804BFC8
:1070A0001B68002B06D0199CE02C18BFE22C01D0E5
:1070B000179B0BB1012013E1DDF874901C9DDDF8E6
:1070C00068A0DDF85480149F8DF824208DF82510D9
:1070D000834609F01AFD9DF825100690189807912F
:1070E0009DF8241002900A98CDF820A0CDF81490B5
:1070F0000495039401970091437A024601684BEA94
:10710000071040EA881444F4006008F026FFFEF7F8
:107110009CF80446F22020716071052009F016FEEB
:10712000707910B100F012F80DE09DF82400A0F184
:107130000C05E088A57240F00200E0800A980BF090
:1071400049FA00F088F800F039F9B3E7F188002037
:10715000FEF752B82DE9F84F8AB005461C46207A52
:10716000002804BF2368002B73D030B9236813F1C3
:10717000070F02D313F1010F6BD102280AD10023AC
:10718000D8B2205C18B95B1CDEB2082EF8DBDBB28B
:10719000082B5ED0169800285BD1179E237A30000A
:1071A000159818BF43F008037E2D18BF7F2D03D11B
:1071B00043F4007300B10420149D43EA8013DFF808
:1071C000E4912F0147F4006799F805003B43ADF8BF
:1071D00026300F468DF82420DDF868A0DDF8708099
:1071E000DDF874B090B109F090FC00F03AF8002E90
:1071F00014BF2020052009F0A9FDFEF726F800F0B5
:10720000D9F8B9F80610FFF7A2FF20E009F07DFCDD
:1072100000F027F8FEF719F800F0CCF89DF82410DC
:10722000A1F10C05C188857241F00201C18036B11F
:107230007F0900F0B9F83F0E2037B8B200E0052012
:1072400009F084FD20460BF0C5F900F004F800F0C9
:10725000B5F8012044E00146EAB24FF6FD70FDF7B3
:10726000DFBF06909DF864001899CDF820A0039028
:107270009DF824000797CDF814B0CDF81080029146
:1072800001950090637A2168BDF82600224608F037
:1072900064BE00E000BF2DE9F84F8AB0DDF85080F1
:1072A000DDF854E0DDF858C0179FDDF86090199EB6
:1072B000DDF868A01B9D1C9CDDF874B00795089450
:1072C000CDF824B0CDF818A00596CDF8109003970E
:1072D000CDF808C0CDF804E0CDF80080FFF73AFF04
:1072E0000BB0BDE8F08F2DE9F84F8AB02D4E347801
:1072F000002C1EBF347A04F00304012C4FD0082563
:107300007E281598149C08BF4FF40275800140EA4E
:1073100004108DF824200F4640F400602843ADF897
:1073200026007079DDF860B0DDF86480DDF868A0D3
:107330001C9DDDF8749068B109F0E7FB00F041F89E
:10734000FDF783FF00F036F8202009F0FFFCFFF77F
:10735000FDFE22E01E4609F0D8FB00F032F8FDF7F2
:1073600074FF00F027F87F099DF8241000F01CF846
:10737000A1F10C04C1883F0E847241F00201C1806A
:107380002037B8B209F0E2FC30460BF023F9014691
:10739000E2B24FF6FD70FDF743FF00F00FF8012059
:1073A0009EE70000786F012007F00607C7F103078A
:1073B0007F077047F221017141717047002009F089
:1073C000C5BC06909DF82400CDF820A0079700903A
:1073D000BDF82600CDF814900495CDF80C80CDF8BA
:1073E00008B0019400230022002108F0B6BD2DE969
:1073F000F84F9AB02B9892460F4602461C46FF2A39
:1074000000F0D98048214A43DFF8B43319680D1DD4
:10741000AB58091D43F400738B5043F48063AB50A9
:1074200008A908F029FE002840F0C580079494F8C8
:10743000089000214FF00C0808FB01F208A8104446
:1074400090F82C00002814BF032849F0080903D045
:10745000022808BF49F02009491C0229ECDB9DF8ED
:107460002400299D279C01062499259848BF49F0AE
:10747000100949EA8112E02D42EA002040F4A040C0
:107480001FFA80F918BFE12D03D1DFF838231078F7
:1074900010B10CB149F400698DF818A0289E01B90B
:1074A0005646DDF8B4B0DDF8B0A009F02EFBFF21A0
:1074B00005910490CDF80CB0CDF808A00195009688
:1074C00007987F09437A02460168484607F0060795
:1074D00008F008FDC7F103077F079DF818A03F0ECD
:1074E00007F120054FF00009079FAAF1090B08FBDF
:1074F00009F108A8084400F12C063078002818BFCC
:1075000003280ED1FDF7A1FEF221002C017141717B
:1075100014BF2020052009F019FC7189FFF717FE20
:107520001DE002281DD1FDF790FEFFF743FFC18843
:1075300080F80AB000F04EF814BFA8B2052009F098
:1075400005FCB0884FF6FF71884204BF38460BF047
:1075500041F8014670885FFA8BF2FDF732FEFFF7C3
:107560002DFF09F10109B9F1020FC0DB9DF82400DC
:10757000010620D5FDF769FEFFF71CFFC18880F8E2
:107580000AA000F027F814BFA8B2052009F0DEFB1E
:107590000998810448BFBDF8348003D438460BF005
:1075A00019F8804638460BF015F852464146FDF76B
:1075B00008FEFFF703FF01201BB0BDE8F08F0000BD
:1075C000846F0120EC6F0120E46F0120505F0120E7
:1075D00000710200002C41F00201C1809DF864108E
:1075E000C1727047080002007090030001207047CC
:1075F0002DE9F84F07460D467248017A9EB01646AF
:10760000C80703D59DF8B410E32910D1289C0B932B
:10761000200002BF6B490878002810D1184608F0F6
:1076200082FDFF280BD00CA908F026FD00287BD195
:107630000D98410478D49DF84600002874D1002F9D
:107640008DF8287018BF7C2F05D07F2F6CD15D4935
:107650000878002868D05B4908788DF82A508DF8A2
:1076600029602A9D2B9EDDF8B090DDF8B8A02F9FF1
:10767000DDF8C080DDF8C4B000284DD0280003D06C
:1076800000F06DF8FFF702FD9DF8B400E02836D059
:107690002AD3E2281ED002D3E32820D024E09DF88C
:1076A000A410E120059001910B9B9DF829209DF8E5
:1076B0002A109DF82800CDF824B0CDF82080079737
:1076C000CDF818A0CDF81090039602950094FFF71E
:1076D000E0FD29E000F045F8FFF7DCFD24E000F0D4
:1076E00040F8FFF700FE1FE09DF828107C290BD121
:1076F000A0F1E4020C2A24BFB038102810D200F008
:1077000016F89DF8280004E07F2909D100F00FF851
:107710007E20FFF71FFD07E09DF8B400E22803D0AC
:1077200000F01DF8FFF763FE1FB0BDE8F08F9DF875
:10773000B4009DF8A4100590CDF824B00191CDF8C7
:1077400020800797CDF818A0CDF8109003960295E9
:1077500000940B9B9DF829209DF82A1070479DF8F6
:10776000B4009DF8A41005900B9B01919DF8292071
:107770009DF82A109DF82800CDF824B0CDF820807F
:107780000797CDF818A0CDF81090039602950094B5
:107790007047002800D0704710B50A4C207AC10706
:1077A00007D508F051F800202072BDE81040FFF71F
:1077B000D3B810BD527C0120745E01207C90030080
:1077C00094540120786F0120912800D0704780B533
:1077D00000F02AFE18B9BDE801400BF03DB801BD2C
:1077E0001CB5059C1CB1049C009403F08FFD13BDD7
:1077F00030B50246DFF8B4080023DFF8B45803E0E0
:10780000D45C5B1C604068438B42F9DB30BD0246B0
:10781000084614232D2105F0E5B80A460146142335
:107820002D2005F00AB9902808BF0BF03BB870472F
:1078300030B585B00024DFF87C586946E0B2FFF728
:10784000E6FF9DF8010038B19DF8000020B918202E
:107850006043012128440174641C0E2CEDDB00F010
:1078600027FB05B030BD2DE9F04F00249FB0A046A6
:10787000A346A146002505A9E8B2FFF7C8FF0BF013
:107880005AF818226A43DFF82C188E183268821AC8
:107890009DF8150000280FD09DF81410002923D161
:1078A000BDF820104FF47A7359438A4208D3317CD3
:1078B00041B9BDF82210002900F0B6804B439A422E
:1078C000C0F0B28004A90391BDF81C1041220EAB98
:1078D0000292019300919DF81A30BDF81820BDF86E
:1078E0001610FEF773FD002840F09E809DF81000F2
:1078F000FDF710FD20B10EA8FDF76CFB401C03E066
:107900009DF8100005F0F6F85FFA80FA0AF103021C
:10791000DCB120799DF815306188834204BFBDF841
:1079200016308B420FD19DF81A30DB095B4504BF3E
:10793000BDF81C30434506D1DFF87C371F88D2B232
:10794000D219914540DA00F07DF8FDF77EFC04463F
:107950009DF81A00DFF8641700915FEAD01BBDF8AC
:107960001C20BDF8161014BF002008200A23FDF7C4
:10797000EAFB9DF815004FF48A51E1802071BDF8B3
:107980001C804FF0FF0900270AA9F8B204F058FA4A
:10799000002802BF9DF829009DF81510884202BFFB
:1079A000BDF82A00BDF81610884209D19DF835109F
:1079B0009DF828002246FDF791F8484598BF81467A
:1079C0007F1CF8B20228DFDDBDF81800FDF782FA4F
:1079D0009DF81000FDF76FFA51460EA8FDF7AAFAC0
:1079E000002030740AF0A7FF3060002000909DF85E
:1079F00010000EAB5246412818BF42280AD1AAF106
:107A00000101C9B20DF13900FFF7F2FE00906B469B
:107A1000042201E0092A07D20020C6E90200194623
:107A200006F10800FEF7F3FC6D1C0E2DFFF623AFE8
:107A30001CB16188207900F005F800F039FA1FB018
:107A4000BDE8F08F10B50C46FCF726FD08B9032CF5
:107A50000BD1DFF86C06FDF79DFBB42808BFFDF7DE
:107A6000A7FBBDE81040FDF7AEBB10BD2DE9F04F00
:107A700087B00546687D00262C7D0028DFF83C167F
:107A800000912F6807BF08204FF0400800204FF0FA
:107A900080082A8A07237988FDF755FB8DF8058031
:107AA000AA89A1B2C81C90427BDAA868641C415C18
:107AB0008DF80610A1B2FDF76BFA80469DF806001E
:107AC000A41C10B1012852D05BE0A868A1B2641CCC
:107AD000425CA1B2A41C8DF80420AA894FF0000AD0
:107AE000FDF756FA074600F066F881469DF8040057
:107AF000FDF7B7F860B99DF8040004F0FBFFAA8910
:107B00008346A8685B46A1B2FDF72BFA82465C4427
:107B1000298A28689DF805300091418840794246BD
:107B2000FDF7D8FC00281FBF80789DF8041088421C
:107B30008D2727D1286841798DF809102868418858
:107B40009DF80500ADF80C80ADF80A108DF80E0018
:107B5000298AADF81470ADF81690ADF81010CDF874
:107B600018A002A800F0FEF9070099D00AE000F082
:107B700022F89DF8052003464146284600F0A4FA65
:107B8000F2E785273846FDF796F99DF806000126AD
:107B9000FDF791F94046FDF79DF9852F7FF480AF01
:107BA00003E016B90020FDF786F9FCF72EFF01204F
:107BB00007B0BDE8F08FAA89A868A1B2A41CFDF7A0
:107BC000E7B92DE9F04786B00746787D3D7DDFF8BF
:107BD000EC14002800913C683A8A07BF08204FF057
:107BE000400800204FF0800809236188FDF7ABFAB8
:107BF00013E0398A386843460091418840794A4603
:107C0000FDF768FC04001FD18620FDF754F9002021
:107C1000FDF751F94846FDF75DF9BA89A9B2CB1CC9
:107C20009A4254DBB8686D1C0024465CA9B2FDF78B
:107C3000AFF9AD1C8146002EDBD0012E04D085208B
:107C4000FDF739F93046E3E74FF0000A01A95FFA82
:107C50008AF0FFF7DCFD9DF80400B04201BF3968EF
:107C60009DF805004A7990421ED1BDF806004A8869
:107C7000904204BFBDF80800484515D19DF80A00A0
:107C8000404502BFBDF80C003A8A90420CD19DF8E5
:107C9000040000B3BDF81000FA88904202BF9DF8BE
:107CA00012000979884216D00AF1010A5FFA8AF0B7
:107CB0000E28CBDB8B20C3E75FFA89F0FDF7FBF8DA
:107CC0004FEA1929641E2BE0BDF81400A3E7FCF766
:107CD0009CFE01202BE10020FDF7EDF83046FDF77A
:107CE000EAF84846FDF7F6F816B1012EECD094E715
:107CF000002C92D0A078FDF7DEF8BDF81000FDF75B
:107D0000E9F8BDF81200FDF7E5F8A078FCF7A9FF47
:107D1000002882D1A07804F0EDFE0446DDF814902E
:107D2000E0B20028C8D178E710B50024E0B200F036
:107D300001F9641CE0B20E28F8DB0021DFF88403AF
:107D40000170002010BDB12180B50E2802DA00F0CC
:107D500003F90021084602BD2DE9F04387B006462D
:107D60000F46904699460E9C002502A9E8B2FFF7FF
:107D70004EFD9DF80800002804BF9DF80900B042A0
:107D80000FD1BDF80A00B84204BFBDF80C00404551
:107D900007D19DF80E00484504BFBDF81000A04271
:107DA00006D06D1CEAB20E2ADFDB07B0BDE8F08317
:107DB0000F9F00202C460190109D384604F09AFE3B
:107DC000412F0146284618BF422F08D1FDF702F97E
:107DD0000146681CFFF70CFD019001A80421E4B2E4
:107DE00018256C43B34E00912644D6E90223FCF7D4
:107DF00071FB04460D463846FCF733FF012803D1DA
:107E0000002D08BF002C07D10028CED100210698F4
:107E10008D4201D88442C8D30122327400F048F860
:107E2000C3E710B542784B789A4202BF42884B882C
:107E30009A421AD182888B889A4202BF82798B79C2
:107E40009A4212D102890B899A4202BF02780C78B9
:107E5000A2420AD13AB182898B899A4202BF807BC1
:107E6000897B884201D1012010BD002010BD30B5B2
:107E700085B00446002500F096F921466846FFF7D4
:107E8000D0FF78B900F08BF9F5DB002500F08BF915
:107E90009DF8010030B16D1CE9B20E29F6DBFF2020
:107EA00005B030BD2146E8B2FFF7B7FCE8B2F7E70E
:107EB0002DE9F8474FF0FF3985B0C8460025DFF8B7
:107EC000F4A14FF47A7700F06EF99DF8010008B341
:107ED0009DF80000F0B9BDF80C60BDF80E400AF046
:107EE0002AFDEBB218214B437E437C435AF8031022
:107EF00053444A46411A187C18B18E4204D3721A70
:107F000005E024B18C4201D2002200E0621A424511
:107F100098BF904600F043F9D5DB6A4818F1010F8D
:107F200003D04146FEF761FB01E00021017006B07D
:107F3000BDE8F08718B585B004466946FFF767FCD1
:107F400000228DF8012069462046FFF766FC68464E
:107F5000FCF75AFF06B010BD80B5FFF7EBFFBDE898
:107F60000140A5E72DE9F04186B005462889FF26A6
:107F700001270090AB79AA8869886878FDF7AAFA8A
:107F800008B986208EE0E88920B1A989884238BFE7
:107F90008720F7D3002401A9E0B2FFF738FC9DF851
:107FA00004109DF80500002904BF6978884213D1A8
:107FB000BDF806106A88914202BFBDF80810AA8871
:107FC000914209D19DF80A10AA79914202BFBDF8E9
:107FD0000C102A89914214D0002802BFF0B2FF2869
:107FE0002646641CE0B20E28D5DB3446E8894FF6FD
:107FF000FF71884207D117B9E0B2FFF7ADFF00204B
:1080000050E00027F2E70026002804BFA889884234
:108010000AD11422294601A8FEF7F9F901A80AF0AD
:108020004DFC08B101270126E0B2FF2808BF8920D6
:1080300038D017B300208DF804006978E7B20E2F0E
:108040008DF805106888ADF80600A888ADF808001E
:10805000A8798DF80A002889ADF80C000DDA1820EF
:108060004743DFF850800AF066FC48F8070008F143
:10807000080200203A44C2E900003EB9A889ADF8E0
:108080001000E889ADF812002869059001A8FCF7F6
:10809000BBFE050005D101A9E0B2FFF7BEFBFFF76B
:1080A00007FF284606B0BDE8F0810000C59D1C8191
:1080B00093010001A8580120527C01200EDE03002C
:1080C000E1770000FC6101202DE9F84785B0074603
:1080D0009A46FF26012400258846914600F063F861
:1080E0009DF80000012801BF38689DF80110427911
:1080F00091421BD1BDF802104288914204BFBDF8E5
:108100000410414512D19DF80610494502BFBDF843
:1081100008103A8A914209D1BDF80C10FA889142B0
:1081200002BF9DF80E10007981420FD09DF801002A
:10813000002802BFF0B2FF282E4600F030F8CDDB59
:108140003546E8B2FF2803D1892027E00024F8E76C
:10815000C4B101208DF80000396848798DF801001C
:1081600039684A88ADF804808DF80690ADF8022091
:10817000398AADF80810F888ADF80C00396808792C
:108180008DF80E00ADF810A06846FCF73DFE040027
:1081900003D16946E8B2FFF740FB2046C7E66D1CF5
:1081A000E8B20E2870476946E8B2FFF730BB30B539
:1081B00085B004460025FFF7F6FF21466846FFF725
:1081C00030FE38B9FFF7EBFFF5DB2046FFF74FFE37
:1081D00005B030BD0020FBE780B5A0B080787D22DF
:1081E000694604F0ADF901001CBF694602F04FFD7D
:1081F00021B000BD0A46014638B510460AF0E0FC41
:108200000446FF2801D1182032BD0BF0EDFB0546D6
:1082100020460AF052FC284632BD80B502F038FCF8
:108220000120BDE8024010B5040014BF084800203A
:108230000BF0C4FC50B1002C0346064914BF064A9B
:10824000064A0220BDE8104001F049BC10BD000004
:10825000908D03004C8D0300788D0300848D030006
:1082600080B5522200215248FEF718F95222FF2110
:108270005048BDE80840FEF711B92DE9F641044623
:1082800001F0ECFA0646204601F0F8FA9DF80010DD
:1082900022464FF6FF7516B3019B212A1B781EDA82
:1082A0004220454E022B09DA4343F01830F81230D1
:1082B000AB4214D05B1C20F8123010E00FD1002329
:1082C00006EB420700FB03F637F806E0AE451CBF9D
:1082D0000EF1010E27F806E05B1C022BF2DBDFF843
:1082E000D4C0334E3CF8123036F812709F428041B1
:1082F000C043C00FAF421CBF7F1C26F81270092C70
:10830000BCF8147018BF0B2C08D1B6F814C001EBE0
:108310000C0EBE450FDA6144B1820DE01D2C0BD16D
:10832000B6F83AE0BCF83AC001EB0E08E04502DAD4
:108330007144718700E0B78236F81210994203D376
:1083400010B92046FCF747FD00201C49C6B28A5DE3
:10835000A24204D0401CC6B2112EF7DB17E0112E4A
:1083600015DA02F092FA0446154801788C4203DBD4
:10837000E02114480BF08CFD2220444312490819D7
:1083800030F81610A9421CBF491C20F81610BDE891
:10839000F381522200210648FEF780B85222FF21C5
:1083A0000448FEF77BB8034A22F81010704700001B
:1083B000B0720120047301207C73012090A203009D
:1083C000BE57012080A2030058730120DFF8D01AA5
:1083D000C873704710B5DFF8CC4A2068427B112A79
:1083E00004D0B021DFF8180C0BF052FD20684121B9
:1083F000417310BD80B5022002F04DFA02F054FA2C
:1084000000F03EFADFF8F40B137B042B03D1017C60
:10841000491D017404E04FF47A71183004F0A2FB96
:10842000BDE8014002F041BADFF8780A0168487BF4
:1084300033281CBF4328532801D101207047002056
:1084400070472DE9FF4101200BF01EFE0BF020FECE
:1084500008F05CFC00284FD0DFF8444A002020766A
:10846000DFF8A00B01790C3001F05AF8607D18B1EB
:108470000BF092FF002060750021217300F042F89C
:108480000CF0EFFE0BF047FE0025DFF87C8BDFF8E9
:10849000146ADFF8787B3978E8B288422CD202F08F
:1084A00003FA30684FF6FF724188914218BF0120ED
:1084B00007D100220821001D01F088FA401E8041EA
:1084C000C00F94F8281001F00101014210D030686B
:1084D00008224188ADF8081000F010F80A230A229B
:1084E00001F062F802230B22414600200DF0C0F893
:1084F00002F0DBF96D1CCEE7BDE8FF81011D684687
:10850000FDF785BF10B5DFF89C090068017B0329E2
:1085100018BF042906D141884FF6FF72914208BF67
:10852000032008D001F0B9F9044601F0BAF9214658
:1085300003F00FFC022001F0BCF90DF049F900F046
:10854000C3FEBDE810400CF0B7BE38B5DFF85049A7
:10855000E07300214FF6FF7001F0F6F8DFF84459A0
:108560002968487B032818BF00281ED0332818BF6D
:10857000432814D101F096F82868017B032918BF1D
:10858000042906D103214173E07BBDE8324002F0AB
:10859000EAB9E07B02F0E7F9BDE83140B2E721201B
:1085A0004873BDE8314006F03FB831BD10B500F06A
:1085B00067F90020DFF8444A50734FF6FE7008F068
:1085C000A8FA4FF6FF7008F0ACFA01F06BF8E07B08
:1085D000BDE8104002F0C7B97FB50446E07A152225
:1085E000DFF8C058029094F90A1003200191238902
:1085F0002FA1009323460DF06AFA2968487B70B9D1
:10860000208901F0BBF80AD0DFF8042A10780B2883
:1086100005D102F04BF910B902F04AF910B17020FF
:1086200004B070BD2868017D880708D508F06DFA90
:108630004FF6FE72904203D10DF081FA00E0002067
:10864000214600F01FFF06000DD12868017D880734
:108650004CBF0220012000F0EDFE002101200DF0B2
:10866000B1FC060001D03046DAE7DFF8D81B087805
:1086700008B10EF0F8FD00220821204601F0A6F90D
:1086800030B1042120460EF061FE08B1A520C7E7F5
:10869000DFF8B40B01780020DFF8282CE08121748A
:1086A0006261204600F04EF9064602F0BAF8DAE7B9
:1086B000423870574242000038B50446234618221B
:1086C00000F0F2FFDFF83409002180F820102200CA
:1086D00002D0FF2C02D10121017507E00122A50083
:1086E00002756D1C2902203004F03CFA00F0ECFD0C
:1086F000002032BD0020DFF8041981F82000DBE7FC
:1087000038B588B004460D46686916220790297C62
:108710000691E8890590297B0491E87A039095F900
:108720000A10032002912B89CDF800500BA1019370
:1087300023460DF0CCF901200BF056FE287B0028D3
:108740000CBF4FF6FE7008F0E0F92B4622460146BA
:1087500009B00120BDE8304096E000004242387088
:1087600057424242574244002DE9F0410E46DFF89D
:108770003457296880461446487B1F4600284BD151
:10878000200049D0042C47DCDFF8840801780B294D
:1087900042D102F08BF800283ED102F089F808B1EE
:1087A000042C39DB387B032816D14FF6FE718E423C
:1087B00014D1012C08BF002610D0022C2CD108F0B7
:1087C000A4F94FF6FC71884202DA08F09EF901E044
:1087D0000DF0B5F9064601E0012C1DD0B8F1000FEF
:1087E0000CD0387B032820460CBF01210021012C2E
:1087F00018BF00200DF0E6FB010026D139463046B7
:1088000000F040FE010020D102F04AF802F02FF8FB
:1088100020B102F04DF808B1702016E02868407BC6
:10882000332818BF532803D00020DFF8741688734C
:10883000204600F0FFFDDFF80C1A087820B102F0A6
:1088400037F808B90EF00FFD0020BDE8F08138B50B
:108850000446DFF8A85708222146281DFDF7D7FD5A
:10886000207B0328A8BF0020287028789421E97372
:10887000002800F005F80CBF01203120507331BDF5
:10888000DFF820160A68704710B51C46FFF76CFF2A
:1088900001002BD1207B0328204602D1BDE81040E7
:1088A00050E0FFF7D4FFDFF8F80500218181DFF801
:1088B000F44520684FF00103817B480905D1DFF8BA
:1088C0001C0C027803FA01F108E001F01F0140F0EE
:1088D000180003FA01F1052241EAC061052006F003
:1088E000FCFE010002D022680021517310BD38B592
:1088F0000446DFF8B05520782968887301F091FFAD
:108900002968DFF8180C0A7B2189825C60890FF0E6
:1089100004F8040004D09420FFF717FE204632BD6F
:10892000DFF87C459420E073022001F0B3FF00F0F3
:1089300004F803202074002032BDC82104F118007F
:1089400004F010B910B504460022082101F03EF8E9
:1089500008B1012010BD08F0D8F800224FF6FF71D1
:1089600000F0BEFD217C204600F0DAFD6269E1895D
:10897000207C0CF05DFFDFF82C0501680A7B012AE2
:1089800008BF0EF0B7F8FFF7BDFD002010BD7CB5A5
:10899000DFF8105529680446487B002802BFDFF83D
:1089A000701608780B2801D0702076BD0BF025FDDD
:1089B000DFF8EC642CB10222214606F12800FDF715
:1089C00026FD684600F098FE08B1932076BD9DF81C
:1089D0000030142200F068FE00F0ECFD010061D1CF
:1089E0009DF8000000F026FD2868007B012818BFD4
:1089F000022807D0032818BF042838D1002000F02F
:108A0000C1FEA0B300F0EDFD2868007B032814BF71
:108A100004280FF050F8FFF775FD01200FF06CF8F7
:108A200001003FD12868007B032818BF04280ED11D
:108A300096F828108A0708D50522DFF88818012043
:108A400000F046F801002CD076BD032801D00428A0
:108A500027D1DFF8B44502230B22214601200CF078
:108A600007FE207841071CD50BF04DFC19E0296862
:108A7000132000224873727328684FF00102817B33
:108A8000480908BF02FA01F107D001F01F0140F0C8
:108A9000180002FA01F141EAC0610522072006F040
:108AA0001CFE002076BDFF2212E0000038B504460F
:108AB000104603280D4618BF042801D0022032BDFD
:108AC00000F0B8FC294620465FF0FF02BDE83840C0
:108AD0002DE9FC418046DFF8CC0300680D461646C0
:108AE000017B01293ED0477B022F07D0032F39D1CC
:108AF0005FEA080102D1007D810733D4332000F002
:108B0000D8FE15F0784F294612BF0522DFF8CC09B0
:108B10000278052006F0E1FD0446A8B9DFF8DC7410
:108B2000387301200BF060FC07F0F7FF78805FEAF4
:108B3000080014BF022001203870381D00F0F3FD3A
:108B400000207873BE7302E0384600F0B2FE5FEAA0
:108B500008003146284602D00EF0F0FF03E00EF088
:108B6000ECFF00E070240194009543465FF02C0276
:108B700003A103200CF0ABFF2046BDE8F681000006
:108B8000424244420000000038B5044609F020FF8C
:108B9000054620460EF0F9FF2C1820460FF000F98C
:108BA0004FF6FF5101402046BDE834400FF0FFB8BA
:108BB000FEB5054607F0A9FF0646BA4C287821689D
:108BC000887301F02EFE6889002100F0BDFD00F0E1
:108BD0000FFF60B1300003D04FF6F8718E4206DB14
:108BE0000CF0ADFF216806464A889042F8D0304626
:108BF00007F08FFF288907F094FF06208DF8080002
:108C00002068DFF81819027B8B5C002101918DF838
:108C1000093000914088022302AA01210FF04FFA87
:108C20000646FF2804D11820FFF78FFC1820FEBD50
:108C300020689B4D418830460EF0E8FF28780228D6
:108C40001CBF3046FFF7A0FF00F063F80746304630
:108C500009F033FFCFB19420E873022001F01AFE2F
:108C60002068017B042908D1C82105F1180003F010
:108C700079FF032028740020FEBD4FF4167105F122
:108C8000180003F06FFF0020F4E79420FFF75DFC6D
:108C90000120FEBD78B587B00C4616461D4630B99A
:108CA00020460FF0D1FB03A90EF0EBF903A80C99B5
:108CB000019007238DF8096001208DF80830360AED
:108CC0008DF80B1000908DF80A60042302AA012190
:108CD00020460FF0F4F90646FF2818D021460EF082
:108CE00095FF15B93046FFF74FFF0D9808B930468C
:108CF0000DE020460EF0FEF918B130460FF0D2FB21
:108D000001E000F006F8304609F0D7FEFF2008B079
:108D100070BD0022002130460FF005BF2DE9F34F52
:108D200083B0824614461D4600274FF6FF7954B1A2
:108D300020460FF0FFF966784FF0010B8046760869
:108D400006F0010605E008460EF0C9FFBB46002606
:108D5000804600F0E0FB087B032818BF042800F0E1
:108D60009C809DF810006D1CE9B20AF048F8054699
:108D7000400800F001008DF80900280600F0CBFB48
:108D80008DF808A058BF45F080054A7B022A04D11F
:108D9000434A107D50EA0A0101D1022729E04046EA
:108DA00007F062FEADF800009DF8100003210EF000
:108DB000E6FE814608B94FF0010930000CBF4FF0C4
:108DC000050A4FF0010ABBF1000F03D0201D0EF081
:108DD000E7FF01E0BDF800000146CDF800905346E2
:108DE0002A4640460EF067F800F0C8FC814608BFEE
:108DF0000127DCB19DF8080018B9484600F0BEFC18
:108E000002D1201D0EF0CCFF0121019101460097F7
:108E100033464A464046FFF73DFF9DF8090050B9EA
:108E20004FF6FF71404610F065F904E03A464946B6
:108E300040460EF04BFD87BB9DF8090028B1414626
:108E4000484610F07BF910F0C8F930001EBF4846C4
:108E50004FF6FF7188420BD00FF0F6FADFF8A01939
:108E60000A684BF6FF7132F810300B4022F81030D0
:108E70009CB107F04AFE0EB1002405E09DF80810F1
:108E8000002914BF03240124014643464A462046D4
:108E900005B0BDE8F04F10F047BB05B0BDE8F08F5E
:108EA000EC750120D87501202DE9FC4705460C46DC
:108EB00001A900200860904620460EF070FE06468C
:108EC000DFF84079290007D00FF034F981463046A9
:108ED0000FF025F9824604E020460EF000FF81469F
:108EE000BA460020009004234246214601A809F01A
:108EF00082FE0DF105000EF053FF80469DF80740FD
:108F0000280006D0082239465046FDF7CEFA002840
:108F10006FD1DFF8F4783968C87E10B170788207B5
:108F200012D5280010D0487B022808BF002C0BD196
:108F3000404607F0EEFD0CF094F9992300F0B3FBE6
:108F4000992001F010FD54E000F052FD002818BFF8
:108F5000002C03D09420FFF7F8FA4AE000F048FD17
:108F6000002846D048460FF053FFFF2801D02900C3
:108F700004D138684946408810F0E0F810F02DF927
:108F800038684A461D4C4188404600F0A9FA1D4801
:108F900090F90210090261853868417B012916BFEA
:108FA0003129112143214173022001F073FCDFF8C4
:108FB0005C080168FFF7C2FC0EF07DFD0020207404
:108FC0003968C87E20B904F1180003F0C1FD0EE035
:108FD0002DB17078820702D5FFF733FA07E0087BDE
:108FE000042804D10521FFF7A9FC09202074AD2134
:108FF000E17301F016FCBDE8F3870000EC75012079
:1090000040980000247601202A790120BE570120D3
:10901000E25701202DE9F04F8DB005460EF0BFFD5F
:1090200082460EF007FE009028460EF058FE81465C
:1090300002AB052205A9284610F0A8FD80460228AB
:1090400020D028460EF0A1FD00999DF80820DFF8F9
:10905000B87708188618F1B22846F41C09F0CFFE3C
:109060004FF6FF7B01280ED0022813D0042800F011
:10907000C58006281CD0072875D0082829D07C2850
:1090800000F08880DAE0F3B2002229460020FFF7E2
:1090900045FED3E03868417B012902BFDFF8702725
:1090A0001078002803D1F2B22946FFF7FDFEC5E093
:1090B00048460DF0CBFF014658451CBF48460EF010
:1090C000D1FB3868417B022902D148460EF025FDCC
:1090D000B4E000200AF0D8FF711CC9B2284609F09C
:1090E00041FF8246E1B2284609F03CFF0446B61D26
:1090F000F1B2284609F036FF06465845E8D00EF092
:10910000DAFC3868417B132908D100F06AFA284656
:109110000EF0E5FD0146204610F010F83868407B5F
:10912000022818BF132818D1304607F0F2FC504629
:1091300007F0F7FC0021002000F0F2F94946204634
:1091400000F002FBDFF8CC06C178DFF8CC26117006
:1091500000F0BAF83868417B13296FD1232242739B
:1091600006F07CFB6AE000980121504409F028FDDC
:10917000044600230022214601200EF0DAFC0028DC
:10918000204659D009F099FC05AA414628460BF023
:1091900041F953E0284609F01BFCF6B280194178EA
:1091A000652904BF80786D2848D1DFF870160A68F9
:1091B000E0B2515D884241D20822494603A8FDF73A
:1091C00026F96B460022E1B228460EF055FEA8BBF8
:1091D0009DF80000FF2831D0DFF8444601202070C0
:1091E00001F05DFB9DF8001003A80EF08BFC01F070
:1091F0005CFB002020709DF800001DE028460EF06A
:109200008DFD04460FF24860008800210191ADF801
:109210000A00009102230DF10A02012120460EF0FE
:109220004EFF0546FF2809D021460EF0EFFC002135
:1092300028460AF007F9284609F03FFC0DB0BDE8C2
:10924000F08F0000D5570120337D012038B5022072
:1092500001F021FB01F028FBDFF8B4450020207667
:10926000DFF8A45507F052FD28B12968C87E10B96F
:10927000FFF7E7F820E007F049FD10B900F0B8FB70
:1092800048B1207C38B1FFF758FB207C411E217487
:109290000AF0C7F910E02868417B132909D000F0D3
:1092A000A7FB30B92868407B11281CBF4328412800
:1092B00002D1E07BFFF749F9F0E10020DFF850151B
:1092C0000874704700F8FF0710B501F0FCFADFF8EA
:1092D0004045FF2803D0207D10B1012000E0002090
:1092E0000EF0C8F900206080201D08220021BDE892
:1092F0001040FDF7D3B82DE9F84389460446DFF85E
:1093000010750121DFF80C8584B01646797340464C
:109310000BF04DF804F0BEFE00281DD1012C01D049
:1093200020001AD100964B46262293A103200CF070
:10933000CEFB01F0B4FADFF8EC040268314648468F
:10934000002A05D09047012C04D106F027FC01E04B
:1093500003F0FBF901F0A9FA5FE0DFF8AC542868EC
:10936000407B23280DD100F098FA044600F099FACA
:10937000214602F0EEFC022000F09BFA0AF0CBFE40
:109380004BE0002E49D121281CBF0428532802D1CC
:1093900005F04AF941E000F02BFBF0B10BF020F8AA
:1093A00028B9387B00280CBFAB2094202AE011F0AC
:1093B000DCF840460AF0FBFF28B14FF4D5610FF20C
:1093C00080400AF065FD38780028404602D1FFF75A
:1093D0008EFA22E0FFF7ECFB1FE02868417B13299F
:1093E00016D100F0E5F8BDF8000007F09AFB00F098
:1093F000F8F82868017B032918BF042905D1332117
:1094000041739620FFF7A1F807E0FFF77BF804E02F
:10941000042C04BF484611F0E0FE4FF400600DF04C
:1094200094FC10B90FF0DFFB08B10AF03FF805B06B
:10943000BDE8F08338B50446DFF8CC532868017BDB
:10944000A14203D00473204601F086FA04F031FDF6
:1094500040B11CB9002004F028FD0EE0012004F00A
:1094600024FD00E01CB12868017B042905D101F02E
:10947000E5F9FF2808BF012000D00020BDE83240F8
:109480000AF0E6BA38B505460C46E07A10F0FAFD67
:10949000FF2801D18A2032BD94F90A0000F0B4FA05
:1094A00008B18B2032BDDFF86003E17A0268917366
:1094B000A17A0068C173284607F02BFB4FF6FE70B7
:1094C00085420CBF4FF6FF70208907F02AFB2089E8
:1094D000DFF83C134880002032BD0000D657012041
:1094E00038B50C46154607F014FB0CF0F7FA294680
:1094F000204600F029F90AF073FF10B1C548C07882
:1095000006E000F008F80A7B012A0CBF00200120C9
:10951000C149087031BDBC480168704744730100FF
:109520007FB504460D4600F043F8B74E94B1414A6A
:10953000002128460CF07CF93068082201788DF86B
:109540000410007B21468DF8050002A8FCF75FFFA0
:1095500011F0C1FF3068817B8DF80310C17B8DF85D
:10956000021007F0DAFAADF8000007F0CEFAADF815
:10957000060000F017F87FBD424242001FB50446C6
:1095800000F016F81CB100208DF8050007E007F088
:10959000BCFAADF8060007F0C0FAADF8000000F024
:1095A00001F81FBD10230722694600200CF060B8A7
:1095B000684641E080B58AB0FFF7FAFFBDF80000C9
:1095C00004A9ADF818009DF803008DF81B009DF864
:1095D00002008DF81A00BDF80600FFF753FF0BB02C
:1095E00000BD70B586B0012000F0CCF80FF2642108
:1095F000D1E900234FF6FF7504002E46CDE9002384
:1096000005D08148006846880822FEF777FF11F0F0
:109610006DFF02A800F010F8002CBDF80E000EBF80
:1096200000226A4635462946FFF75AFF06F045FFF5
:1096300006B070BD00F8FF07014610230722012085
:109640000CF016B838B5082001F025F9054601F0F0
:109650002BF96D4C744801782268917301F022F95E
:10966000A84208BF01F0B2F800210020FFF758FF20
:109670002068007B032818BF042802D112F0EFF9FC
:1096800001E00DF010FE9B2300F00DF89B2001F08F
:109690006AF92068002120F8441F4180BDE831406C
:1096A00001F003B9E37B132254A103200CF00FBA9D
:1096B00010B5044610F0E6FCFF2801D18A2010BD49
:1096C000FFF729FF487B022818BF032801D070202C
:1096D00010BD55480470082001F0DCF853480178AB
:1096E0000B2901D03D2010BD514809F062FE08B998
:1096F000A12010BD002010BD1FB504466846FFF72D
:109700009BFF9DF8050040B1042806DCFFF7B8F880
:109710009DF8041013788B4201D0932001E0207053
:10972000002004B010BD1FB504466846FFF784FF53
:10973000082202A92046FCF76AFE1FBD32490A68CA
:109740003C48137BC05C704710B52F4C2368588091
:1097500011B90822181DCAE50822181DFCF757FE8A
:1097600021684FF6FF724888904204D0091DBDE879
:1097700010400EF0E6B910BDBDF808004FF6FF71BD
:10978000884270471FB50446214890F82810C80742
:1097900007D500F011F8FFF7EFFF02D000F012F844
:1097A00008B1002006E024B1BDF808006946FFF7C3
:1097B000CBFF012004B010BD0A230A226946012014
:1097C0000BF056BF0822FF21684600F0FFB80028C2
:1097D000194A10701EBF19490988002905D04FF495
:1097E0007A704143101D03F0BDB9704712480078EC
:1097F000704711480021017101707047424200001A
:109800005C5401203C760120D875012004550120CC
:10981000EC75012024760120467D0120485401206A
:10982000E0750120B4770120347D0120E25701204A
:1098300045960000447301001876012096570120D8
:109840006173736F63696174696F6E2E63000000EA
:1098500004600000FFFFFFFFFFFFFFFF20B50021B6
:109860007BA2CBB2D35C834205D0491CCDB2082D7C
:10987000F7D3002020BD012020BD000020B500212D
:1098800075A2CBB2D35C834205D0491CCDB2082D62
:10989000F7D3002020BD012020BD6A480168488818
:1098A000704768480168081D704766480168C87EAF
:1098B000704738B5634C2168634D0228487363498B
:1098C00015D12068027B042A1CBF084603F040F92A
:1098D0002068007B03281EBF0428284603F038F9BF
:1098E00020684169C80054BF9024BC2410E00020C7
:1098F0000870287012F0C8F82068007B032818BF91
:10990000042802D112F0ABF801E00DF0CCFC912458
:10991000204604F009FA50B92346132248A1032037
:109920000CF0D5F82046BDE8324001F01CB831BD3E
:1099300044480168487B00F00F00704741480168C7
:109940004A7B02F00F02022A01D101207047002059
:10995000704738B504463B4DFFF7F0FF28B928683B
:10996000417B032901D0932032BD07F0D6F8208136
:109970002868C17BA1722868817B2046E172FFF7CD
:10998000D2FE0020207304F1140104F110000BF04A
:1099900027FFE081002032BD70B52A4D0C462E68AD
:1099A000FFF7CCFF20B9707B032801D0932070BD56
:1099B000F07B20702968887B10F0BEF96070286801
:1099C000817B002001F01F01A17070BD10B5002344
:1099D00000E05B1CDCB28C4205D210F8014B9442D3
:1099E000F7D0002010BD012010BD08210DF0AEBC45
:1099F00014480168487B01281CBF3128332801D155
:109A0000012070470020704710B5044610F0FAFAA4
:109A1000010002D10B490A68D47310BD09480168DE
:109A200091F90F00704707480168887B7047012053
:109A30007047044801688A7B500918BF01207047AD
:109A400042420000D8750120A0780120A8780120AA
:109A50000001020304051D200203040508090A0B86
:109A60004FF6FF720146904208D0000A01D0002054
:109A700070473948027811EA020000D0012070478F
:109A8000020A07D1344A1378002914BF184323EA85
:109A900000001070704710B5830800EB5374C108C4
:109AA0000122E408A0EBC40002FA00F000EB012060
:109AB00080B210BDF8B504460D4616461F46FFF7A6
:109AC000CFFF58B13A463146202012F031F91DB18E
:109AD0002249202012F024F921480480F1BD0CB461
:109AE00080B50A4602AB012104E00CB480B50A46F9
:109AF00002AB0021FFF7DEFF01BC5DF80CFB2DE996
:109B0000FC410024174DDFF8608011A711A6A0B218
:109B1000FFF7C1FFFFF7A4FF00282246294614BF24
:109B200030463846009058F824302020641C12F04B
