S01E00007A335F6C6974655F74696D65725F6D6732315F763636302E73333795
S31500004000A84F0120695E030049020100AD38030094
S31500004010A70A0A010041000004180FAC006645001B
S31500004020000000000000000000000000000000008A
S3150000403000000000686E03000000000000000000A1
S315000040400000000000000000FFFFFFFFFFFFFFFF72
S31500004050FFFFFFFF00A0070000000000002008008F
S31500004060FFFFFFFFFFFFFFFF8000000000000000D2
S31500004070000000000000000000000000000000003A
S315000040800000000000000000547D0120547D012046
S31500004090A84F01200EE20300825E0300484601207D
S311000040A04C110020002008000000000069
S31500004100A84F0120695E030049020100AD38030093
S31500004110B5380300B1380300B938030000000000C9
S31500004120000000000000000000000000AB57000087
S31500004130BD3803008B540000BF620000036B000013
S31500004140F5390300F5390300F5390300F5390300A5
S31500004150F5390300FD7E0200D9740000F53903002D
S31500004160F5390300F53903007D710000F5390300C8
S31500004170F5390300F5390300F5390300F539030075
S31500004180F5390300F5390300F5390300537A0000C9
S31500004190F53903000BFE0200F5390300F53903007B
S315000041A0F53903008500030075000300F5390300A7
S315000041B0F5390300F5390300F5390300B31603009A
S315000041C06F1603006D16030051120300B1160300AB
S315000041D0711603007516030073160300815D030054
S315000041E0E9160300F5390300F5390300856500007B
S315000041F0F5390300F5390300F5390300FBBD00006E
S31500004200F5390300F5390300F5390300F5390300E4
S31500004210F5390300F5390300F5390300F5390300D4
S31500004220F5390300F5390300F5390300F5390300C4
S31500004230F5390300102510B5494A494C4A4B1B680D
S31500004240234207D103408B420DD0521EF6D16FF0A8
S31500004250020010BD4548034202D06FF0010C201643
S315000042604FF0FF3010BD002010BD70B5404D6860A6
S31500004270E8680E46410702D518200870BD56F804B6
S315000042800B141F02E008101D241FA86044B108216A
S315000042900820FFF7CFFF0100F4D00421296070BD8C
S315000042A0042028600021211612C4162304D10C1004
S315000042B005BDE87040BCE77054301341F671312AF1
S315000042C04C01222A4BE568E1621A606060022626EC
S315000042D030300B2D0CFFF7ABFF05F0010501000395
S315000042E036201CFFF7A3FF0121204A11600DB10003
S315000042F021E16270BD2DE9F843184F3D68894614E7
S31500004300464A200A80462D0C39620122164B0020AF
S315000043103A100B1A6009E0324649464046FFF79FBD
S315000043207E501F0DD1B044B144A41B4CB108F5001A
S3150000433056760B7603A6EB0806B442ECD22646EA7E
S31500004340E70121095C10133962BDE8F283000080A1
S31500004350969800060001001C00034002081210088F
S31500004360130C1004000120034000000070B5044641
S3150000437016460D46304600F0D3F800202070304631
S31500004380A847BDE8704000F0D4B801224749484824
S31500004390ECE7012247494848E8E7012247494848EF
S315000043A0E4E7022241494748E0E7022241494648FC
S315000043B0DCE7022241494548D8E7012244494548FD
S315000043C0D4E7022242494448D0E7F2224049434812
S315000043D0CCE780B5012000F0D7F9414800F068F934
S315000043E04049087001BD80B500F0E2F9012805D00A
S315000043F03C480078BDE8024000F045B901BDF0B583
S31500004400002400E0641C384D2E88E3B2B3420ED27D
S31500004410E7B20C256F43354B3B441E78864201BFFD
S315000044205D888D421E799642ECD11846F0BD00207B
S31500004430F0BD80B519B900F0A7F8002002BDB1F1B2
S31500004440004F02D200F0AAF8F7E7022002BDB1F54C
S31500004450000F3CBF0902FFF7ECBF0220704770B5A2
S3150000446005461E46FFF7CBFF04000ED0284600F097
S31500004470D3FC50B1A0683146FFF7DBFF28B9049999
S315000044800598A0716171002070BD022070BD1CB539
S31500004490049C0093134601940022FFF7E0FF16BD2B
S315000044A080B500230093FFF7F2FF02BDA7BA020012
S315000044B0FC5B0120FBBE0200045C012011C302006C
S315000044C00C5C0120145C01201C5C0120245C012092
S315000044D0E9BB02002C5C0120345C01203C5C01201D
S315000044E084620300A37B012080570120EC50012049
S315000044F080B5FFF784FF20B180680021017000209D
S3150000450002BD022002BD0022F2E770470C480D49A9
S3150000451008600020704700B1702070470020704787
S3150000452080B500F013F8FF2801D1A32002BD0020BA
S3150000453002BD00207047704700BF034800787047EF
S3150000454006C30300106B0120945C012080B500F0C7
S31500004550A1FCFF2818BF002002BD00210170704792
S31500004560FFF775BF38B54478456800F085FF0C2124
S315000045704C438749874B0A59521B9A4238BF0D5103
S31500004580BDE8324000F07EBF10B500F079F86060FB
S31500004590042020702046BDE81040E3E738B5044605
S315000045A00D4600F080FF2D18656001202070204622
S315000045B0BDE83240D6E710B50446207860B104283D
S315000045C006D000F070FF6168724B421A9A4201D21F
S315000045D0002010BD081A10BD4FF0FF3010BD70B599
S315000045E000F04EF8054600F047FF064660680022D8
S315000045F06FF0004100F007F8451925603046BDE828
S31500004600704000F03FBFF8B505460E46144600F070
S315000046104AFF024600239CB1FF20207010E0087874
S3150000462060B1042811D048685A4F111AB9420CD308
S31500004630801AB04202D2064604B123705B1C0835CC
S3150000464029680029EBD13046F2BD04B12370002061
S31500004650F2BD38B500F014F805460DE0017851B109
S31500004660042904D041684B4A691A914203D20423B3
S31500004670037061688847083420680028EED131BD90
S31500004680044600F010BF10B5FFF7FAFF0C225443A2
S315000046903F4A404B1159401A984207D21444606869
S315000046A0FFF7D7FF2046BDE8104098E710BD000091
S315000046B070B50446384E394A70781378984204D358
S315000046C05FF0F00136A000F03DFF75780C20304A0F
S315000046D02B464343691C7170D11801264C600E723B
S315000046E000E0457054F8080B0028FAD10846FFF799
S315000046F076FF284670BD0000F8B50C244FF0FF3158
S3150000470060430091224D05F1080100220A54224B14
S3150000471093F8000068B301F011F820B940F22911AE
S315000047201FA000F00FFF00F0BEFE024600261A4B47
S31500004730DFF860C05978F0B2884211D26043295838
S31500004740571A674515D305F10807385C891A80B9E9
S3150000475079B10098814288BF01460091761CE9E74D
S31500004760684601F010F810B9684600F0B8FE01205E
S31500004770F2BD01F016F80020F2BD0C214843044BAF
S3150000478001221844027270470349087070470000FE
S31500004790A063012001000080A17B0120A8DE0300A8
S315000047A06576656E742D636F6E74726F6C2E630022
S315000047B0024800787047014908707047007D012063
S315000047C0DFF8DC18F0B50A6888B0DFF8D81803A857
S315000047D00260D1E90027DFF8D018DFF8D04804A836
S315000047E0D4E90056C0E900270A6801A806AB0260B2
S315000047F0C3E900560320DFF8B81802AB002408709E
S315000048001C6000940021DFF8AC0806AEDFF8A8288B
S3150000481003AC02EB0112655C04AC157036F811307E
S31500004820538034F8113002AC9380655C01AB95710E
S315000048305C5C00EBC40595601DF801400125491C30
S31500004840147355730229E1DD08B0F0BDDFF8600886
S3150000485000787047DFF8601801EB0010407B00F02D
S3150000486001007047412818BF422803D0432818BFCB
S31500004870442801D10120704700207047412818BF05
S31500004880422801D10120704700207047432818BFF5
S31500004890442801D10120704700207047F8B515461D
S315000048A01E46069A079B044600F055FA60B104219D
S315000048B000F057FD070007D02046FFF731FE3246CD
S315000048C029462046B84794E0F1BD2DE9FC4714007F
S315000048D0814688461F461CBF0A9D002D1FD0F7B192
S315000048E028780C9B0107618820794CBF40228022E2
S315000048F000F031FA98B1082100F033FD824670B11C
S3150000490020790B9EFFF70CFE009501963B4622464A
S3150000491041464846D047BDE8F347FFF70ABEBDE823
S31500004920F387F8B5069C16461A460546234600F058
S3150000493012FAD0B121000BD1022100F012FD0400C1
S3150000494013D02846FFF7ECFD31462846A0470BE07A
S31500004950102100F006FD070007D02846FFF7E0FD0E
S31500004960224631462846B84743E0F1BD2DE9F843D3
S31500004970089C90461A460646234600F0ECF908B90C
S31500004980862016E000259CB9202100F0EAFC81462D
S3150000499070B10B9F0A9C099D3046FFF7C1FD009739
S315000049A023462A4641463046C8470546FFF7C1FD1D
S315000049B02846BDE8F283F8B504462078A5680026A7
S315000049C0FFF7AEFD11E0F1B21422286851434718F3
S315000049D03988207800F0F1FE0121384600F0C1FC4C
S315000049E001001CBF20788847761C2979F0B28842DE
S315000049F0E9D3BDE8F140FFF79CBD38B50024DFF8E8
S31500004A00B0560AE0DFF8440A210600EB1150427B5B
S31500004A10D10748BFFFF7CFFF641C2978E0B2884270
S31500004A20F0D331BD5CB585B00A9C00268DF8080030
S31500004A30ADF80A108DF80C30ADF80E200196ADF8E1
S31500004A40104000960023002201A902A800F083F876
S31500004A50019807B050BD7CB5069D1C4696782B0084
S31500004A6008BFD378412E18BF422E06D0432E09D157
S31500004A709A1E92B201F098FA16E05A1ED2B201F0CE
S31500004A8079FA11E0442EF3D034B92C0004D0D27850
S31500004A90954201D2892076BD00291A4602D101F03D
S31500004AA0C4FB01E001F07AFB002076BD10B50023BF
S31500004AB001E0001D5B1C9CB28C4204D20488944227
S31500004AC0F7D1408810BD002010BDDFF88419401AC8
S31500004AD00C2290FBF2F20021DFF8780910E0028840
S31500004AE0B2F57C4FA8BF00F002B80846EDE7DFF844
S31500004AF06819401A142290FBF2F20021DFF85C09D3
S31500004B0092B2D3E710B50C460188628891420DD166
S31500004B10037B2279134209D0B1F57C4F04DBFFF702
S31500004B20E6FF2189884201D1012010BD002010BD79
S31500004B3010B514460A88E3889A420AD10288B2F56B
S31500004B407C4F04DAFFF7CBFF2189884201D101208F
S31500004B5010BD002010BD2DE9F74F82B004469A46DD
S31500004B600025002703E0C88845197F1CFFB2DFF83F
S31500004B7040150A78974280F0A380DFF83C0500EBE9
S31500004B8007102378027881689A42ECD10091407B25
S31500004B90C107EAD54FF0000804E0B9F80A00451944
S31500004BA008F1010800995FFA88F00A799042DCD290
S31500004BB00A685FFA88F114204843214602EB00098F
S31500004BC04846FFF79FFF0028E7D04FF0000B07E0AD
S31500004BD030790BF1010B10F0300F04BFF078451956
S31500004BE0B9F808101FFA8BF08842D9D21FFA8BF257
S31500004BF00C21D9F804004A43861822463146484615
S31500004C00FFF796FF0028E3D003982746344600B105
S31500004C1004602079810610D5DFF83408002105E00C
S31500004C200279930644BFC27851180C30A042F7D3DC
S31500004C30DFF82C0889B2461803E0DFF82818ADB271
S31500004C404E19DDF83880049D4046B8F1000F1BD0A0
S31500004C50019521464846FFF742FF02462388798898
S31500004C603878DFF804B800F0A6FDF0B12079C10667
S31500004C701DD521464846FFF732FF00950346798841
S31500004C8038782246D8471CE0DDB1214648460196D1
S31500004C90FFF725FF02462388798838782E46DFF805
S31500004CA0CCB700F086FD0028E0D17E2009E001990E
S31500004CB0CDF800A0434622463046FFF7CCFE00E082
S31500004CC0862005B0BDE8F08F2DE9F84304468846F6
S31500004CD01646994600252179E8B2884221D2EAB2E1
S31500004CE0142320685A4387183888404517D1310065
S31500004CF00AD0802E03D1397B0A0605D40FE0402E58
S31500004D000DD1397B4A060AD5B0F57C4F0CDB384607
S31500004D10FFF7EDFE484518BF5FEA090004D06D1C99
S31500004D20D9E70020BDE8F2833846FBE7134680B595
S31500004D3007E0134680B5402204E0134680B5802282
S31500004D4000E0002200F007F800B1012002BD80B5A6
S31500004D5000234022F6E770B50C4615461E4600F0C5
S31500004D6099F8FF2801D1002070BD06E070B50C4609
S31500004D7015461E46002100F035F82146DFF8CC46E0
S31500004D8004EB001033462A468068BDE870409BE776
S31500004D901346402201E00022FAE72DE9F84F824649
S31500004DA08B46904699460026FFF7D5FF08B9FF20A7
S31500004DB016E00027DFF80043DFF8F4522978F8B24E
S31500004DC088420CD20001205C504508D04B46424632
S31500004DD05946FFF7CBFF00B1761C7F1CEEE7F0B219
S31500004DE0BDE8F28F70B50022DFF8CC32DFF8C05292
S31500004DF02E78D4B2B4420BD224011D5D854205D172
S31500004E000D0007D01C44647BE50703D4521CEDE774
S31500004E10FF2070BDD0B270BD80B50021FFF7E2FF64
S31500004E20FF2801D1002002BD00F061F8407B00F0B0
S31500004E30010002BD70B50E4604460021FFF7D2FF01
S31500004E40FF2801D1002070BDDFF8001601EB001528
S31500004E503200687B00F0010114BF40F00100002021
S31500004E606873B14214D076B12846FFF7A4FD0FE06F
S31500004E70142200685143761C0844027B01882046B0
S31500004E80D209FFF735FBA868F1B202799142EFD358
S31500004E90012070BD0121A5E7DFF8B0150001085C0F
S31500004EA07047F8B50C46FFF7F5FF01460020FF29CD
S31500004EB01FBFDFF8982502EB01118968002915D07C
S31500004EC0002214270D79D3B2AB420ED2D6B20B68AC
S31500004ED07E43451C33441B7B260001D11B0600E0A4
S31500004EE05E0648BF2846521CECE7C0B2F2BDDFF8AA
S31500004EF05C1501EB00107047F8B50C461546FFF738
S31500004F00C9FF01460022FF291DD000234FF0140CD3
S31500004F1001E0521C5B1CDFF8340500EB0116DFB222
S31500004F20B0680679B7420ED200680CFB07F7384422
S31500004F30067B15B1760602D4ECE73706EAD5D6B27B
S31500004F40A642E6D1F2BD0020F2BD002109E010B56F
S31500004F500446012100F005F82046BDE8104001F0A6
S31500004F608EB92DE9F14F88B0894601F044FA5049CF
S31500004F700A780023069005928DF80430DFF8CCA459
S31500004F800AE00AEB0010017B0698814214D09DF8D6
S31500004F900400401C8DF804009DF804000599884221
S31500004FA058DA9DF82020FF2AEBD01046FFF772FF53
S31500004FB08DF80400FF2854D0002756E00328ACBF24
S31500004FC0D6F808B006F1080B0120009000235A46D7
S31500004FD0002102A8FFF7BFFD5FEA090007D0BDF870
S31500004FE00A201AF808103346584600F002F9641CE5
S31500004FF02989A0B2884237D2A2B20C2168684A43F6
S3150000500086183379D906F2D41AF808208DF80820C4
S315000050102988ADF80A103079410628464CBF802110
S3150000502040218DF80C103188ADF80E103146FFF78F
S3150000503056FDADF810003179F0784A07BED5D6F89E
S3150000504008B00328C0DBDBF800B0BDE79DF8200000
S31500005050FF289CD0B9F1000F04BF9DF8200000F096
S315000050602DF809B0BDE8F08F7F1C9DF80400F9B259
S315000050704FEA00180AF1080050F808000279914238
S31500005080E4D20168FBB214204343CD182A8940F2CA
S315000050902D118A42A8BF01F09BFA0024A8E7000060
S315000050A0C8670300D4670300DC670300CC6703000E
S315000050B0FD7C0120486E0300945C01207CB504460B
S315000050C001F099F905460120FFF740FA44F203067C
S315000050D0012C03D0FF2C08BFA84227D101237F2231
S315000050E0212100F083F800F078F800F07BF8012326
S315000050F07F22222100F07AF83020009001AB324660
S3150000510000F070F801237F22232100F06FF82020A1
S3150000511000F064F8082100F066F801237F222421BC
S3150000512000F064F800F052F800F05DF80220FFF796
S315000051300DFA022C03D0FF2C08BFA84240D1012350
S315000051407F22252100F052F800F047F8062100F0F2
S315000051503AF801237F22262100F048F830200090FB
S3150000516001AB3246062100F02EF801237F222721CB
S3150000517000F03CF8202000F031F8082100F023F878
S3150000518001237F22282100F031F800F01FF800F0FB
S315000051901AF802237F22292100F028F82120009006
S315000051A001AB072200F00DF802237F222A2100F02E
S315000051B01DF82120009001AB44F2100200F001F826
S315000051C073BD4FF44071022001F063BA20200090B5
S315000051D001AB4FF48042082170471020009001ABCC
S315000051E0002270470621012001F053BA01A801F000
S315000051F067BD2DE9FC4104461D4628790E46174633
S31500005200830740F1A58002220021684601F00DF8CF
S3150000521004B96C4644F20308012E3AD1062F1AD17E
S31500005220288850B900F09AF838B92879410604D48C
S3150000523000F090F8212001F06EFD288840450BD142
S3150000524000F08CF8002807D1287941061CD400F01C
S3150000525081F822207AE0082F7AD1288850B900F008
S315000052607DF838B92879410604D400F073F8232074
S3150000527001F051FD2888B0F5804F69D100F06EF835
S31500005280002865D12879410662D400F063F824200D
S315000052905CE0022E5CD1062F1AD1288850B900F0A6
S315000052A05DF838B92879410604D400F053F8252072
S315000052B001F031FD288840454AD100F04FF800281A
S315000052C046D12879410643D400F044F826203DE033
S315000052D0082F1AD1288850B900F040F838B9287933
S315000052E0410604D400F036F8272001F014FD288882
S315000052F0B0F5804F2CD100F031F848BB2879410633
S3150000530026D400F027F8282020E0B7F5407F1FD1EB
S31500005310288807280BD100F021F840B928794106E2
S3150000532005D4022322467F21292001F0F4FC288897
S3150000533044F2100188420BD100F010F840B92879E8
S31500005340410605D4022322467F212A2001F0E3FCF0
S31500005350BDE8F381012322467F2170472846FFF7E7
S31500005360B4BB30B5047B012200230C4205D10020DA
S3150000537030BD144218BF5B1C5200D5B28D42F8D323
S315000053800069DBB250F8230030BD3949401A80036A
S31500005390020C00213748FFF789BB2DE9FE4F002795
S315000053A000284FF00108487D06D008B9022407E01E
S315000053B0012804D1012403E008B9082400E00424EC
S315000053C00E980C9DB9460D9EDDF83CB08A46ADF8A8
S315000053D000200193ADF830508DF83800244800EBDA
S315000053E089052988BDF80000814224D1E978214247
S315000053F021D0A9789DF8380081421CD3E9789AF823
S315000054000F00CA0608D5B0B12846FFF7BEFFBAF8A6
S315000054101010814201D00EE068B9BB4513D0BDF82B
S31500005420300087420FDAA9780198C15532887F1C6F
S31500005430BFB2521C328009F10109B9F14B0FCDDB25
S315000054404046BDE8FE8F4FF00008F9E7945C012066
S3150000545044690300646E03001C6D0300606E030064
S31500005460645D0120C45C0120D9570000D5570000B7
S315000054701468030040690300EFF31180302181F3C3
S315000054801188704780F311887047704780B500F027
S315000054900AF880B202BD80B500F005F8FA21B0FB2B
S315000054A0F1F080B202BD80B501F039FEBDE80440DE
S315000054B001F052BE80B501F092FF12480021416012
S315000054C0001D01F091FC20B15FF04C0118A000F026
S315000054D039F8002002BD01200A49087070477CB5E2
S315000054E004462268002502B910E000F002F8012007
S315000054F010E0044E3570706800210091024B01F0F7
S31500005500EBBC0000E4760120D754000000F049F916
S31500005510002076BD02F0C2F8307828B970682146BE
S31500005520852501F0A7FD01E025603570284676BD8A
S3150000553073797374656D2D74696D65722E630000E1
S3150000554042DE704738B504460D4601F041F802F0D8
S31500005550B9F82946204602F0DEF82B4622466D4968
S31500005560012002F065FA29462046BDE83440E7E707
S3150000557069482DE9F8430168684E4FF42068B16523
S31500005580026A6749F2650B68336649687166426A62
S31500005590B266816AF166C26A3267016B7167806BB7
S315000055A096F83810B06748074CBF346CF46B02F0BD
S315000055B06DFADFF870E10022844201463265A146A9
S315000055C024BFAEF12007A742716506F19002564B43
S315000055D0DFF858C118D3A0697064E469B464B56D86
S315000055E0C5F30805062D13D1604511D398420FD295
S315000055F000884DF64264A0420AD17068B46840F251
S3150000560001785060946003E000247464B4648146B9
S315000056104748814238BF0146084670456AD20C6841
S31500005620B4F1CD3F08BF091DF6D063E0062C09D1C1
S31500005630C4B2002C06F17C040CBF0520401EC5B286
S3150000564044F82510F14520D25EF8041D6145F9D3D2
S315000056509942F7D2CC07F5D5002406F17C0555F81A
S3150000566024708F42E2D0641C062CF8D3DEE7F16F7B
S31500005670002306F17C0506EB8304D4F8804045F848
S3150000568023405B1C042BF6D911600146481EC9B2A3
S315000056900029ECD1B06DC0F30800032810D004280F
S315000056A011D0052812D0062813D00C2817D03B2875
S315000056B018D120480268910719D540F2025816E021
S315000056C040F6012813E040F6022810E040F60328D1
S315000056D00DE0B8F5206F0AD140F6042807E040F641
S315000056E0052804E018B14D2838BF40F60728404683
S315000056F0BDE8F2831049081AF0640020002106F183
S315000057007C04C5B2401CC7B244F82510062FF8D356
S31500005710002097E78467030004ED00E00000002006
S3150000572000E300E0A84F0120825E03006C43000006
S315000057309C0000201880014AA84F0120EFF310803A
S31500005740C00706D4EFF3118030288041C043C00F54
S315000057507047012070477047704770477047704721
S315000057607047704770477047704770470020704712
S315000057707047704770470020704770477047002099
S315000057807047704770470020704770470120704788
S3150000579001207047704770477047704770477047E1
S315000057A07047002080F311887047FEE7704701209C
S315000057B070470120704701207047704700207047EE
S315000057C00020704700207047002070470020704777
S315000057D0002070470120704701207047B5207047B0
S315000057E00020704700207047002070470020704757
S315000057F070470020704700207047704700207047B0
S3150000580084207047704770477047704770477047ED
S3150000581070470020704770477047704700207047F8
S31500005820704702F055B903207047002070470348BF
S3150000583001680878012808BF02207047106B012014
S31500005840002070474FF6FE720121C28181810161FD
S315000058500022027001207047704770477047002091
S31500005860704700207047002070470020704770473F
S3150000587000207047704700207047002070470020C6
S3150000588070470020704700207047002070470020B6
S315000058907047002070477047B5207047002070475A
S315000058A00020704770470020704770477047B5204A
S315000058B070477047704770470020704770477047C1
S315000058C080B5FFF7E7FAFF2805D0032803D2DFF8F3
S315000058D0D417085C02BD002002BDE0B5022100918C
S315000058E001AB0022032100F001FF20B9BDF804003E
S315000058F010B1012000E00020C0B20EBDF8B5069F31
S31500005900002400250646092F02D300200021F4BDFD
S31500005910A4460DE0A7EB000EB6441EF8010C2D02BE
S3150000592045EA1465002110EB04240CF1010C4D41ED
S315000059305FFA8CF0B842EDD39D4206D828BF944258
S3150000594003D2101B63EB0501F4BDA01A65EB03013E
S31500005950F4BD10B50268DFF8501713880B80548821
S315000059604C8052790A7103681A794FF48A53CB80B6
S315000059704A71026893799A06DFF8302744BF4FF4DC
S315000059808B53CB808169137839B9C088DFF820172B
S3150000599003F0FD030880137010BD43F0020313707B
S315000059A0DFF8104781691622204600F0F7FB002237
S315000059B0227010BD80B50020FEF7ADFDFF20FFF779
S315000059C0C4FAFEF7B6FDFEF741FF02460121DFF8F5
S315000059D0D40600F02AFCDFF8D036DFF8DC265221A8
S315000059E0DFF8D80602F025F9FEF7F3FC02F010FA0C
S315000059F002F0D6FA03F072FA03F065FF03F086FFB1
S31500005A00BDE80140FEF7F9BF704780B504F062F8C3
S31500005A1020B905F0E3FA08B903F0DCFCFFF73BFF19
S31500005A20BDE80140FFF746BF70B5034600204FF6BC
S31500005A30FF72DFF88C4634F8305095420ED09D4206
S31500005A4009D1B3F57C4F0ADB04EBC0056E888E42A4
S31500005A5005D00D0003D0401C80B2ECE7104670BDA7
S31500005A6010B50446FFF7E0FFDFF858164FF6FF7251
S31500005A700B88904203D12246DFF84C1606E0DFF889
S31500005A80401601EBC0004268DFF840161846BDE834
S31500005A90104005F080BBDFF83806006800B1008AC8
S31500005AA070471CB50446DFF82C16087800283DD050
S31500005AB005F048FC0246DFF82016022005F06BFBD5
S31500005AC0206841880091A2894379DFF810160220E8
S31500005AD005F061FB022005F019FB20B12068218A40
S31500005AE04088FFF7BDFFE07B28B1228ADFF8F0157A
S31500005AF0022005F050FBE07CDFF8E8150090A06876
S31500005B00A37C0278022005F046FB217DA289A468C9
S31500005B100123521A92B22144022005F02BFCDFF831
S31500005B20C8150220BDE81C4005F02FBB13BD10B5FB
S31500005B30044621684879FFF7ADF9FF281DD0DFF844
S31500005B40AC1501EB0010217F027B8A4215D1226839
S31500005B5040881188884206D04FF6FF7399420CD1CF
S31500005B60B0F5004F09DA2079022818BF032806D1BC
S31500005B701189507905F056FE08B9002010BDA07BAA
S31500005B800028204602D005F09BFE01E005F0C8FE85
S31500005B9000B1012010BD3EB51446227855074CBF12
S31500005BA005220322934209D20092DFF84425DFF84A
S31500005BB04415022005F0E9FA00203EBD089D069A2C
S31500005BC028602971EA80AC60AB81207800F0010082
S31500005BD0A8732178890801F00101E9732078012171
S31500005BE02975C00800F001006875E87B30B11A46D7
S31500005BF0204606F087F9297D891C29750799288290
S31500005C00287D421C2A75205C531C2B75A874D2B2C1
S31500005C10A05CA961E87400F0EEFB287701203EBD88
S31500005C202DE9F14F84B00F469246DFF8CC549B46DF
S31500005C300E9EDDF83C802846DFF8C014202206F0D0
S31500005C4093F902950498CDF8048000965B46524677
S31500005C5039460024FFF79FFFDFF87494002869D0C7
S31500005C60C9F80050A87CDFF8981408702846FFF79A
S31500005C7018FF2846FFF76DFE284600F001FB30BBF3
S31500005C80B8F1000F25D1042F18BF052F03D0022F1E
S31500005C9018BF032F01D1012200E00022E9882868FD
S31500005CA001910121438800930388E87C00F007F9FD
S31500005CB098B12868817988060FD4DFF84844012115
S31500005CC021700022284600F0BAF800202070012436
S31500005CD030E098F8140081072CD528684179FF290F
S31500005CE024D10026DFF8C083FEF7B0FDF1B2814271
S31500005CF020D2F0B2FFF7D0F80746F0B2FEF7AAFDC1
S31500005D0090B128682A8A41883846FFF70FF858B1BB
S31500005D102846FFF71EFE2868477188F80470284653
S31500005D20FFF705FF00B10124761CDDE72846FFF7E3
S31500005D30FEFE044606F062F816220021DFF8740320
S31500005D4000F073FA0020C9F80000204605B0BDE84F
S31500005D50F08FDFF8B4130878401C0870FFE700F0F6
S31500005D607F007047DFF844130A78002814BF42F01A
S31500005D70010202F0FE020A707047DFF89013087005
S31500005D80704780B1DFF884130978012904D10188AE
S31500005D9041F0400101807047022904D102884FF684
S31500005DA0BF710A400280704778B1DFF864130A7841
S31500005DB0012A04D1DFF85C2313780B7001E0022A74
S31500005DC003D1017841F0100101707047FEB5B74C60
S31500005DD02178CA0701D50020FEBDC94A1378B74A03
S31500005DE015786E074CBFD3705370B34B1D88890767
S31500005DF008D52946AF4806F0F7FA217801F0FD01EB
S31500005E002170FEBDAA4B1C884FF6FC77A649BC4202
S31500005E1008DA009201900A462B462146002006F039
S31500005E20C9FCFEBD009013462A46204606F091FCAA
S31500005E30FEBD0020CAE70146A5480068002270B5ED
S31500005E40044620790E461546002818BF01280BD1B6
S31500005E50A0680178CA0601D5300005D0A07B0028CD
S31500005E6004BFE07C0B2801D1002070BD0021924ABE
S31500005E701180607DE17B00280CBF0820002011B94D
S31500005E8005F0D3FF06E040F0040005F0CEFF208ABF
S31500005E9005F0DAFFA07C05F0C8FF0B2005F0C5FF72
S31500005EA0E07C05F0C2FF304605F0BFFF2046FFF755
S31500005EB050FD2846BDE8704088E70022BFE770B570
S31500005EC01D46954B1C788F4E012C01D0337813B1AB
S31500005ED00020307070BD0B0002D10AB1002070BDE9
S31500005EE0002C1EBF049C4FF657439C4206D0034627
S31500005EF00A4621462846FFF761FC00B1012070BD25
S31500005F000000000038B5D28852240346950608469C
S31500005F104FF6FD7148BF4924550548BF083C150595
S31500005F2048BF083C120448BFA41E032B0ED8DFE866
S31500005F3003F00902060BC0B206F0BAFF02E0C0B2D7
S31500005F4007F0F0F9014601E0641EE4B20846FFF7E7
S31500005F5050FC241AE0B232BD4254120A0844427080
S31500005F60704708440270110A130C120E41708370B8
S31500005F70C270704770B50C000546164608BF002073
S31500005F8003D02178FF2902D1FF20287070BD20465A
S31500005F9005F0DAFF864288BF06463246611C681C59
S31500005FA000F0FCF82E7070BD70B505460C00164664
S31500005FB003D100206870297070BD2078FF2804BFC7
S31500005FC06078FF2802D12870687070BD204605F001
S31500005FD0C0FF864288BF06463246A11CA81C00F0B8
S31500005FE0DDF82E70360A6E7070BD2DE9F041541E34
S31500005FF00BB3042A46DC0023002698465FFA88F590
S31500006000954225D2651B002814BF10F805C04FF035
S31500006010000C571E4D5DA7EB0807FF000CFA07FCA6
S3150000602005FA07F74CEA03033E4308F10108E5E7E2
S31500006030AE4224DB5B1CDDB2954223D2651B0028F1
S315000060400CBF0026465D4D5DB542F1DA01201AE02F
S31500006050042A10DAD5000120D2006D1E00FA02F2E1
S31500006060524243FA05F1CC0746FA05F048BF1343FE
S31500006070C00748BF16439E42E8DBB34202DA4FF040
S31500006080FF3000E00020BDE8F0810021234A01E056
S31500006090891CC9B2535C8342FAD3501840787047C2
S315000060A00000000030740120AC6A01202D7D012023
S315000060B0567C012058740120587C0120B86A0120C2
S315000060C0ACA103005E7C012014A103002CA10300F7
S315000060D054740120AC57012034A103003CA10300F5
S315000060E05CA1030068A1030098DE0300945C012014
S315000060F0A4A1030088A1030034740120FCA10300BD
S31500006100CF570120297D0120D05701202A7D01206B
S315000061102B7D01202C7D0120CE5701201CA20300DF
S31500006120283808288041C00F704710B500F009F8DC
S31500006130FF2801D1A32010BD002104F83010002053
S3150000614010BD04460846FEF7A5BE38B500F00BF8AC
S31500006150FF2801D1A32032BD294604EBC000BDE8CB
S315000061603440FEF766B9044608461546FEF792BE69
S3150000617040B11C280BD01D280CD01E2818BF1F2884
S3150000618005D009E00B39102906D2002070471B29DB
S31500006190FBDB01E00929F8DB8A20704770B58142F4
S315000061A024D210441144401E491E10E011F8013952
S315000061B0121F00F8013911F8014900F8014911F8D8
S315000061C0015900F8015911F8016900F8016993B203
S315000061D0042BEBDA93B2002B1EBF11F8013900F83D
S315000061E00139521EF6D170BD00F00DF893B2042BA2
S315000061F0FADA93B2002B1EBF11F8013B00F8013BFF
S31500006200521EF6D170BD11F8013B121F00F8013B7A
S3150000621011F8014B00F8014B11F8015B00F8015B26
S3150000622011F8016B00F8016B7047130003D00A46A2
S31500006230194607F01FBA704710B5034600E0521E14
S3150000624090B218B100F003F8F9D0001B10BD13F896
S31500006250010B11F8014BA042704780B5FFF7AAFB6E
S3150000626007F078FABDE8014007F084BB80B5FFF778
S31500006270C4FA07F09BFCBDE80140FFF7C5BB7047B9
S31500006280FFF7FDBAFFF701BB3EB5069D079C0194DB
S31500006290009502F0F6F93EBD38B504460D4607F006
S315000062A080FB2946204607F0A8FC29462046BDE883
S315000062B03440FFF703BBFFF7EABAFFF7F4BAFEE78D
S315000062C038B574480068744C48222060606000212C
S315000062D0FFF7ABFF714A107821680022087020682A
S315000062E04FF6FF714180027323685A7320680B22B0
S315000062F0142382732268D37320684FF6FE730382D9
S31500006300418201F0E5FB2168087601F0E1FB216896
S31500006310487601F0DDFB2168614B8876614802789A
S315000063202168CA76604920680A6840F8282F1D78D7
S3150000633005715E4801682268116331BD10B507F02A
S31500006340D8FE554C6168897B884203D0084607F021
S31500006350D7FD50B907F0D1FE616891F90F10884258
S3150000636005D0084607F0D8FE08B1012010BD6068C8
S31500006370008A08F002FB6068408A08F01AFB606831
S31500006380017B01290CBF0120002008F0E5FA00205E
S3150000639010BD10B5464C0020207009F0FAFA20B95D
S315000063A02046BDE81040FEF7EFB868E080B5002053
S315000063B000F015F828B1002000F005F808B100201B
S315000063C002BDFF2002BD34480168487B02281CBF7D
S315000063D01128432801D101207047002070472E481C
S315000063E00168087B01281CBF0228032801D101206F
S315000063F070470020704700207047002070472D49E5
S31500006400087070477047002070470120704770473A
S315000064100020704700207047704770470020704783
S3150000642080B50020FFF7CFFF20B10020FFF7D7FF90
S3150000643000B1012002BD80B50020FFF7C4FF30B1D6
S31500006440154801680A7B032A01DA002002BDFF20F5
S3150000645002BD000010B5040000F005804FF4BA71CB
S3150000646041A0FFF76FF81349087808B9702010BDEE
S31500006470084948200A684443074B10195860BDE88C
S3150000648010405BE704484168088A70470248416843
S31500006490488A7047AC53012078750120C257012005
S315000064A0B8570120C3570120B0530120B45301202F
S315000064B068750120D25701207047002070470020E0
S315000064C0704709F036B87047002818BF09F0B8BA07
S315000064D0704709F07ABE09F048BD82B08DF8001009
S315000064E0DDE9002302B011461A4603F01CBA33B5A3
S315000064F085B005468DF8042004F006FD04462846BE
S3150000650004F012FD7CB10028BDF818000FD104F08C
S31500006510E6FDFF288DF8000004BF00218DF800106D
S31500006520CDF808D016E0A8B106A8029012E004F053
S31500006530D6FDFF288DF8000003AA04BF00218DF8C0
S3150000654000109DF80000BDF8181002928DF80C009E
S31500006550ADF80E10DDE901010A460146284603F0B2
S31500006560E2F907B030BD0000656D6265722D6D758C
S315000065706C74692D6E6574776F726B2D73747562AA
S315000065802E63000009F060BE7FB51C4991E81C002F
S315000065906846032180E81C0001250D268DF80710AA
S315000065A08DF800508DF806600821232009F086FF3B
S315000065B0694613480AF02CFA4FF400601149086046
S315000065C00222114B1A60114C206011490A607FBDEE
S315000065D00B480AF00CBAA52803D1002108480AF096
S315000065E0F5B970470B48006805E00B4908680028B4
S315000065F0FCD17047C84000F0010070475C8803007A
S315000066000080014A84E200E018A0014A04E100E0AB
S315000066101C90014A0480014A2480014A2DE9F8476A
S3150000662085B0109D0F9F0E9C0295019706468A46DF
S31500006630904699460094FFF7BAF8010003D0022865
S3150000664003D002D310E001200EE00CBF0120002091
S315000066500021049103900295019700944B4642460F
S315000066605146304600F07AF906B0BDE8F087F0B53D
S3150000667085B00A9D0B9C0026012704960397029479
S315000066800195009617E078B585B000F00BF88023E9
S3150000669004E078B585B000F005F8402300F05EF917
S315000066A006B070BD0A9C0025012601930495039649
S315000066B002940095704700F051F905B0F0BDF0B5B1
S315000066C0012785B004970A9D0B9E0C9C0027039713
S315000066D0029401960095EEE77FB5099C089D0A9EF7
S315000066E00294002403960195009410E038B584B016
S315000066F000F006F84023FFE700F0E2F905B030BDF0
S31500006700089C00250193039502940095704700F0BC
S31500006710D7F904B070BD2DE9F84F84B0DDF8389094
S3150000672090461C4605468A464B4622460026ADF84C
S315000067300060FEF710FBB34607008DF80450ADF875
S3150000674006A08DF80840ADF80A80ADF80C904FD041
S3150000675001A9FEF7D7F900284AD0ADF80280002437
S31500006760DDF83C90DDF840A0BDF8008015E0B1B240
S3150000677049450FD205F068FBA87805F056FB5FEA9D
S315000067800A0006D02879C10754BF0520072005F066
S315000067904CFB761C08F10108641C3989A0B28842BA
S315000067A01ED2A2B20C2178684A433B888518B3F5FD
S315000067B07C4F09DA288801AA2946ADF80A0038462E
S315000067C0FEF7B6F90028E7D02888BDF802108842FF
S315000067D0CDD20BF1010BDDE7002005B0BDE8F08F4F
S315000067E0B6B21FFA8BF006441FFA88F08642F3D140
S315000067F00120F2E72DE9F84795B04FF00009DFF8E0
S3150000680050A101E009F10109FEF720F85FFA89F1CC
S31500006810814236D2002738E0A078FEF737F8D0B1AB
S3150000682004A805F096FB16E000210391412202928E
S3150000683004A901910090228829881AF8080000F01E
S315000068403FF9862807D0A078FEF718F80028E3D08D
S3150000685004A805F079FB761C2989B0B2884213D2C8
S31500006860B2B20C2168684A438418FFF7B1FE21468C
S315000068702846FEF734F921794A064CBF8023402387
S31500006880D2E716B0BDE8F0877F1C4FEA09604FEAF1
S3150000689010580AF1080050F80800F9B2027991423E
S315000068A0B0D20168FBB2142043430026CD18D3E7CB
S315000068B0F8B596B01D9C1546042C3FDD04AE039634
S315000068C041271C9A029705AE019600922A4600F0CF
S315000068D0F7F8060034D19DF81000412818BF422869
S315000068E004D105A805F030FB461C0BE0432818BF71
S315000068F0442804D105A805F02CFB861C02E00AF00A
S31500006900C3F80646F6B2301D844217DB284605F06A
S315000069109BFA002005F089FA9DF810000D4C05F051
S3150000692084FA20883118522908DA0B4B324605A919
S315000069301844FFF733FC20883618268017B0F0BDC0
S31500006940284605F081FA304605F06FFAF6E70000B2
S31500006950945C0120587C0120B86A01202DE9F84F8B
S3150000696088B0129C054689469246984600200490B7
S315000069708DF81450ADF816908DF81880ADF81AA061
S31500006980ADF81C4000900023002204A905A8FEF7DC
S31500006990E2F8049808B9862082E0159860B904994F
S315000069A09DF850008A78904218BF8D2078D10979D9
S315000069B0C80758BF882073D50498139E01794807E5
S315000069C026D5049988684168049802918168886888
S315000069D0049901908878FFF7A3FB834604985B46E9
S315000069E0C1788DF8001003290A4631462ADA02A832
S315000069F0FFF7FBFA9DF8002007465B46314601A8E3
S31500006A00FFF7F3FA012F1CBF4FF0FF31884228D061
S31500006A101698002843D100F046F8FEF72CFF010037
S31500006A203ED100F040F8FDF7A1FF010038D101206A
S31500006A30009000233246002105A8FEF78CF80100DD
S31500006A4011D02DE00298FFF7D0FA012809D09DF861
S31500006A50002001985B463146FFF7C7FA10F1010F97
S31500006A60D6D187201CE0049B4A4629463046FEF7CD
S31500006A70C0FB02969DF85000009443460190524692
S31500006A804946284602F0BEFC00F00DF8FEF7F2FE7D
S31500006A9000944346524649462846FDF742FF0020E9
S31500006AA009B0BDE8F08F0396049843465246C17874
S31500006AB09DF850000291009401904946284670477F
S31500006AC0F0B585B01C460A9E0B9D0C9B00270197CE
S31500006AD08DF80800ADF80A108DF80C40ADF80E20C0
S31500006AE0ADF8106000972A4601A902A8FEF733F810
S31500006AF0010004D10D9911B1019A93780B7005B07C
S31500006B00F0BDFEE72DE9F84F86B009F0CFFF08B1DA
S31500006B10C620BCE0DFF88852DFF888623168286852
S31500006B200BF084FA04002CD03268516800241068F7
S31500006B30926913689847316802A88A6991688847FC
S31500006B40326802209169CA68904706E009681269AE
S31500006B5000FB0410641CE4B29047039831684B684C
S31500006B60B3FBF0F38A699C42F0D3D16800208847D2
S31500006B703068816948688047316828680BF056FAA2
S31500006B8004460027DFF82062DFF82092DFF8208233
S31500006B90FCB9DFF82012C85D30B358F827A0286882
S31500006BA001AB6A4651460BF019FC484507D080B93F
S31500006BB0009801280DD0286851460BF04DFCDFF8EF
S31500006BC0F80150F8271028680A6851460BF049FB6F
S31500006BD004467F1C2E2FDBDBDFF8E001002C36D1CC
S31500006BE001210170002448E04FF0000ADFF8D001CF
S31500006BF0C15D8A454EDA00F05AF848450BD0A8B96F
S31500006C00009820B90198F15D884204D10EE0286809
S31500006C1059460BF021FCDFF8A00150F82720F35D60
S31500006C20286859460BF0C6FA040033D10AF1010A66
S31500006C30DCE700F03CF84845CBD0286859460BF015
S31500006C400BFC040008BF0AF1010A2CD0C1E70021A1
S31500006C500170002CC6D0DFF86C01241A08D0641E1F
S31500006C6008D0A41E08D0241F0CBFC124C52404E0EC
S31500006C70C22402E0C32400E0C4242968087C28B1A9
S31500006C804FF48971DFF84001FEF75CFC204607B03F
S31500006C90BDE8F08FDFF83411C85D002899D0DFF821
S31500006CA0201111F807A0BAF17F0FC2D391E758F867
S31500006CB027B0286801ABD3446A4659460BF08EBB11
S31500006CC0F8B51546B1F5807F20D2DFF8F04022787E
S31500006CD082B1DFF8E0707A5CDFF8C4402468DFF840
S31500006CE0D06042B156F82110024620460BF0FAFA5F
S31500006CF000B13BE0F1BD7F2D024656F8210008BFEA
S31500006D000025291820460BF078FAF1E701B0BDE816
S31500006D10F0400BF05ABCF8B51646B0F5807F1FD28E
S31500006D20DFF8984022787AB1DFF88820155C1C4C91
S31500006D302468DFF87C7045B1326857F82010204689
S31500006D400BF08FFA00B111E0F1BD7F2957F8200052
S31500006D50324608BF0021091820460BF02BFAF1E74E
S31500006D601A463146BDE8F8400BF050BCBDE8F2408B
S31500006D700BF009BDDFF844201178002900D17047D7
S31500006D8010B5DFF82C3053F82010054C206800228F
S31500006D900BF0E9FA18B1BDE810400BF0F4BC10BDD9
S31500006DA07854012098540120549C03000BE000F015
S31500006DB03C9B0300F49B0300309F0300257D0120CC
S31500006DC0849C030001E000F0E89F0300249C03007C
S31500006DD0010008D4012200F01F018A40DFF88C353B
S31500006DE0400943F820207047F8B500F03EF9002529
S31500006DF0002610B9DFF87805F2BDFEF73DFBDFF897
S31500006E0074350146282203F11E0702FB05FC17F81C
S31500006E100C0010B16D1C042DF7DB042D08BFDFF844
S31500006E20586508D02CB16A4301201E33985425605A
S31500006E3001E0DFF848650846FEF724FB3046F2BD60
S31500006E4038B5DFF83C452078012843D008211B20BF
S31500006E5009F034FBDFF82C05002101710BF0ABFCC7
S31500006E60DFF8241501200BF08FFCDFF82055686948
S31500006E701F210022400940016861DFF81405016006
S31500006E80EA610A20FFF7A4FF4FF48060DFF80415DB
S31500006E9008606A69A021DFF8DC0442F001026A6139
S31500006EA00BF0C0FC0020DFF8F0140870DFF8EC34BB
S31500006EB01870DFF8EC140860DFF8E8341860DFF8C3
S31500006EC0E814086001222270286800281CBF686A3E
S31500006ED00028F9D1002032BD2DE9FF470E460546B0
S31500006EE0DFF89C140878144699464FF0000810B94C
S31500006EF0DFF87C048EE0042D28BFDFF8B404F9D255
S31500006F00FEF7BAFA28226A43DFF8681401908F1850
S31500006F10B87F28B90198FEF7B5FADFF8980479E04A
S31500006F20002C7AD1B9F1000F70D00C992846C847C9
S31500006F306CE0401E61F10001C7E90201D7E90201D8
S31500006F40421C61F1FF33C7E9002301233B779DF81B
S31500006F500000F8770C99DFF8400439620278012ABC
S31500006F6054D0DFF83C44206810F1010F02D02168AC
S31500006F70491C2160DFF824A49AF80000DFF8389451
S31500006F80B8B9C9F800600821DFF804040160D7E940
S31500006F9000016FF06402414501D8904200D31046CB
S31500006FA08619AE62286840F0080028608AF800302A
S31500006FB027E02068012824D187F81C80286820F063
S31500006FC008002860D9F80000301A00F013F900F024
S31500006FD077F9B8F1000F08F1010804BF01203877EE
S31500006FE0304600F07DF928690107FCD4AE68A96A2D
S31500006FF09AF8000028B1D9F80000321A091A8A4214
S31500007000DCD2206810B12168491E21600198FEF784
S3150000701039FA002004B0BDE8F087DFF890532869FC
S315000070200107FAD4620CE10311F5FA708DF80060DD
S3150000703042F10001AE684FF47A720023C7F8189047
S315000070400BF0F4FBC7E902019DF80020012A7FF44A
S3150000705070AF4FF47A71024661431E20A0FB0249CD
S31500007060081B38610F20786168E70446DFF81013C3
S31500007070087870472DE9F0410E46FFF7F6FF10B984
S31500007080DFF8EC0242E0042C28BFDFF824033DD2EF
S3150000709016B9DFF8E80239E0FEF7EEF900F038F845
S315000070A021B9FEF7EFF9DFF80C032FE0117F21B9C4
S315000070B0FEF7E8F9DFF8040328E0D2E90048DFF834
S315000070C000138A681307FCD40F68DFF8EC120D680A
S315000070D0FEF7D8F97D1B0027B84505D8AC4203D288
S315000070E04FF4804000210CE0621B4FF47A74A4FB3D
S315000070F0020168EB070304FB031110F5804041F120
S315000071000001C00B40EA414030600020BDE8F0813C
S3150000711028225443DFF85C321A19917F70472DE913
S31500007120F041FEF7A9F980469E4D00272C6800F035
S315000071300EF8066800F00AF928688442F6D140463F
S31500007140FEF7A0F9B81944EB0701BDE8F0819C48A9
S3150000715081680A07FCD4704730B500F001F830BDED
S315000071604FF47A72A2FB004502FB015514F58040EC
S3150000717045F10001C00B40EA414070472DE9F84354
S31500007180FEF77AF980468F4D68682968804A08407C
S3150000719020F009011160000725D57F4E01213170CD
S315000071A068690107FCD4EF68DFF8F091824C6868E3
S315000071B020F0080068602068381A00F01BF800F01C
S315000071C07FF8384600F08CF868690107FCD4EF6850
S315000071D0E96A99F8000020B120683A1A091A8A4229
S315000071E0E5D20020307000F0B1F84046BDE8F24329
S315000071F0FEF748B92DE9F04900270646BB46282187
S3150000720079435C4800EB010898F81C0088F81DB02B
S31500007210012850D1D8E900018B4508D828BF8642FD
S3150000722005D2801B61EB0B01C8E9000143E098F829
S315000072301F0010B988F81CB037E0D8E90001D8E97A
S315000072400223D8E90245301A6BEB01010BF0EEFA86
S31500007250A21A65EB0303C8E90023D8F8100000283A
S315000072600EDDD8F81400D8F810100818C8F8140065
S315000072701E281AD3D8E90001421C61F1FF330DE044
S31500007280D8F81410D8F81000081AC8F814001E28E8
S315000072900BD3D8E90001421E61F10003C8E90023BF
S315000072A0D8F814401E3CC8F81440D8F8180010B19D
S315000072B0012188F81D107F1C042FA0DBBDE8F08992
S315000072C010B50024282262432A490A44507F18B187
S315000072D0116A926920469047641C042CF2DB10BDAB
S315000072E0F0B54FF0FF3213460021224C28254D43BE
S315000072F06619377F012F08D12544D5E900679F42DB
S3150000730003D82EBF964232463B46491C0429EDDB84
S3150000731000214FF0FF34A34208BFA24213D06FF002
S3150000732064068B4201D8B24200D332462249086035
S315000073300823174C23601D4B10189862186801210A
S3150000734040F008001860154A1170F0BD1D484168EC
S3150000735000680140C80706D501210D4A1160114891
S3150000736003685B1C036070470000000080E200E0D9
S31500007370061000F0505A0120011000F0041000F031
S315000073801B7D0120AC540120B454012004000048A8
S315000073901420004800E100E0197D01201A7D01203B
S315000073A074720120787201207C7201201800004856
S315000073B0021000F0031000F070720120051000F0BA
S315000073C02000004814000048010007D4012200F004
S315000073D01F018A40504B400943F82020704738B5BA
S315000073E088B068464D49102204F0BEFD04A810215D
S315000073F00BF018FA02208DF81600494C04AA002159
S3150000740020460BF017FB206B4FF6FF71E16100225F
S31500007410ADF80220434D694620460BF0B5FA06202A
S3150000742008F016FFBDF902104A1CB0FBF2F0491C29
S31500007430ADF8021009B22860B1F5806F02DA3A4958
S315000074408842E8D20E2008F003FF2A68374BB3FBC8
S31500007450F0F337480021E3FB0201364A00230BF024
S31500007460E5F9354A1060002334490B70A06920F015
S315000074701000A0610620FFF7A7FF402030490860F2
S31500007480002009B030BD38B500F01BF804460D46A3
S3150000749005E04FF6E85000F02EF800F00CF8002159
S315000074A04FF6E9508D42F4D88442F2D2A0B200F0F1
S315000074B022F8002032BD244A4FF0FF33A4185D4164
S315000074C07047184B1C68024619480021E2FB04016C
S315000074D0184A00230BF0AAB980B500200BF035FB43
S315000074E01A490868C00605D51021164A1160012000
S315000074F0124B187001BD81B001000BD014490A6807
S3150000750092B20B68ADF80030BDF800309B1A9BB202
S315000075108342F6D301B0704780E200E098A00300F2
S31500007520008004402874012081841E0000B0710B85
S3150000753020A1070040420F002C740120287D012065
S3150000754000E100E014A004401802FFFF148004408C
S3150000755024800440544800685449524A000C0004F0
S3150000756008601060704701000FD44009504A52F875
S31500007570202001F01F01CA40D20706D54D4B53F813
S315000075802000C84000F0010070470020704700004E
S315000075902DE9F84F054607288A4608BF032502D07D
S315000075A0082808BF022529460120FEF788F9FFF7BB
S315000075B019F830B1012D04D1A5200126FFF70BF8EB
S315000075C005E00026FFF70EF808B1FFF70EF8EFF317
S315000075D010800090012080F31088EFF3118B4FF09C
S315000075E0000888F31188012D2D4C0CBF8146C14639
S315000075F048460BF035FC681EC4F80080042816D8EF
S31500007600DFE800F0030A0A0E12002B48016821F099
S315000076100401016030BF0EE001200BF05BFE0AE0C2
S3150000762001200BF060FE06E00BF071FE03E0842102
S315000076302248FDF787FF1C48416807681A200F405B
S31500007640BFB22760FFF78FFF18B91920FFF78BFF2E
S3150000765010B147F4803727600A20FFF784FF18B17E
S31500007660206840F4003020601EB10121144809F062
S31500007670ADF948460BF000FCBAF1000F29461DBFD4
S315000076808BF31188009880F3108888F31088002007
S31500007690BDE8F44FFEF713B9002179E7FCE70000D7
S315000076A0A8730120AC73012020C4034020E40340EA
S315000076B000E200E000E100E010ED00E0FC9A0300CB
S315000076C00080014A302080F31188704770B50BF0B6
S315000076D00FFFA64C20460CF0C4FAD8B920460CF091
S315000076E089FA0446FF2815D0A1480168085D851E61
S315000076F0E9B220460CF004FA0646E9B220460CF040
S3150000770008F92146304600F0E1F82046BDE8704011
S315000077100BF0A1BF70BD03460A4693A10420FFE704
S315000077200CB480B502AA00F029F801BC5DF80CFB88
S3150000773080B586B00CF080FD8E4A0021662300924B
S315000077400591049103930291019102465FF00003B3
S315000077508CA10120FFF7E4FF8748817902884379ED
S3150000776003910179029201930091C37890F8022067
S3150000777087A14220FFF7D4FF07B000BD2DE9F04FE7
S3150000778085B005460F46904600240CF07CFDF0B906
S315000077900BF02FFED8B101200BF0F3FE8246FF2836
S315000077A015D000210BF0E8FE294601A80BF027FEB4
S315000077B0054687BB00F083F830B950460BF08DFEC6
S315000077C010B104200CF05BFD50460BF044FF05B0F1
S315000077D0BDE8F08F8DF8041001251BE0644858F8C9
S315000077E0046B0068F2B2FF2A10F80A9012D0F1B2C8
S315000077F010F801B050460BEB0901C9B20CF089F83C
S315000078000028E1D1CDF800B00023F2B24946504637
S315000078100CF0A9F97F1C38780028CBD0A0F13001F4
S315000078200A2904D20A2101FB0404303CF2E700F0E5
S3150000783046F80028C8D13978002501A842290ED07B
S3150000784044291AD0462925D057290DD06229C5D0FA
S3150000785066292AD06C2925D0702926D0BAE758F88F
S31500007860040B8DF80400B7E758F8041B02258DF8C1
S3150000787004100904090E4170CCE758F8041B0425CE
S315000078808DF804100B0A0A0C090E437082708DF8ED
S315000078900710BFE758F8041B50460BF0EEFF002810
S315000078A0B8D091E758F8044BB4E758F8041BE2B295
S315000078B050460BF0E0FF002808BF0024F0E72A46F8
S315000078C001A950460BF0D7BF000000002DE9F04398
S315000078D085B080460D46122809D03A281ED04FF6AC
S315000078E0FE71884204BF2846FDF73CFF34E020487D
S315000078F00168224F4E5D2846FF282DD0212EB4BFA9
S31500007900344620240BF032FE0146224600200BF0BE
S31500007910C4FA3868203EF6B2455DECE703F05EFB3C
S31500007920814607F042F8064606F0E7FB074606F0F2
S31500007930E0FB044607F035F8114902460B680D488E
S31500007940CDF8109003905888019600970290234630
S3150000795011A13B20FFF7E4FE2946404605B0BDE8ED
S31500007960F0430CF092BC000057460000D9570120A6
S3150000797074530120DC75012010C203007C530120E2
S3150000798078750120424238704242424257424200D4
S3150000799042424242574200005742425757387042CD
S315000079A0000000002DE9F04104460125012C8AB0B3
S315000079B00F46904618BF202C1E4619D1684622490C
S315000079C0282204F0D1FA012C18BF202C08D0022C52
S315000079D018BF212C04D0032C1CBF222C232C14D11D
S315000079E00197ADF81080012E04D14FF4805005E0C8
S315000079F001200BE0022E03D14FF44050ADF80E00EB
S31500007A00694620460BF06CFA0546E8B20AB0BDE8B6
S31500007A10F08180B50BF008FBC0B202BD80B50BF05B
S31500007A2075FBC0B202BD80B50BF0FAFBC0B202BD59
S31500007A300CB40A4680B5014602AB04480CF065FC5E
S31500007A40002002BC5DF80CFBD49A0300B93101009A
S31500007A507047FEE710B50446FFF734FE200A0028FB
S31500007A600C484FF20F0108BF240204804180BFF387
S31500007A705F8FBFF34F8F08490A68084802F4E06237
S31500007A8002430A60BFF34F8F00BFFDE7044800685A
S31500007A9070470000000000200CED00E00400FA052D
S31500007AA0E856012001468AB20AB94BF6EF61000C8E
S31500007AB00E4A118008BF4FF6CE200D490880704748
S31500007AC002461088030448BF4840410011807047B1
S31500007AD010B562210548FFF7F3FF044641F20B019A
S31500007AE00348FFF7EDFF604010BD00008C570120F2
S31500007AF08E5701202DE9F24F022940F39580190097
S31500007B0005D0BDF800100529F7DB42F004028246D5
S31500007B1001268AF80020180005D08AF801301B0AD1
S31500007B208AF8023003260A9CFEF713F90AF80600C3
S31500007B30761CB0B20AF80040761C4FF0000BDDF858
S31500007B40309007E0BAB241465044FEF727FBBE1913
S31500007B500BF1010B0B985FFA8BF1405C002865D0A6
S31500007B6000250024A046732834DC4C2859F8048BE1
S31500007B701CBF5328622811D159F8047B4C2806D122
S31500007B80BDB24FF6FF70854236D0022434E053284A
S31500007B9032D1FDB2FF2D2FD001242DE06C2804D167
S31500007BA0404604F0D6F9871C26E0732804D14046E7
S31500007BB004F0CAF9471C1FE0A0F130010A2938BFBA
S31500007BC0A0F1300718D3A0F1410107292CD2A0F16A
S31500007BD0370711E00027752808BF01240AD0762848
S31500007BE008BF022406D0782808BF032402D07728CD
S31500007BF01AD1042459F8045BBDF80010B2B2B8B229
S31500007C008218A218914205DA0EE00AF80050761C96
S31500007C102D0A641EE1B2B0B20029F6D1B9B200292C
S31500007C2096D0B8F1000F8DD1002000E0B0B2BDE8CB
S31500007C30F28F10B54A4C20604A4801804A490A60D2
S31500007C404A4A136010BD7FB50C46089909AD0093EA
S31500007C5002951346019100F017F808E07FB50C462F
S31500007C6008A90092029100F00FF801930023FFF794
S31500007C7041FF3D490A683D4B108019684FF48A520E
S31500007C804C80CA8004B070BD0246364D344E2988F9
S31500007C903068704738B50346334C3148256802686A
S31500007CA032482988006801B0BDE8304004F0AEBD16
S31500007CB00020EFE77FB500F028F804F0F8FC04B0E8
S31500007CC070BD0023F6E710B52548274B02681C68EF
S31500007CD0264800682188BDE8104004F001BD7CB547
S31500007CE001921F4A1468204D2E6800941F4C338859
S31500007CF0226804F05FFD76BD0022F0E77FB500F054
S31500007D0004F804F03BFD04B070BD174C00912568E3
S31500007D100293134901920B68144E2A883168704702
S31500007D200023EBE7F8B50E4D2E6884B00A9C039647
S31500007D300D4F3E68358801940C4C2668029575886F
S31500007D40009504F097FD05B0F0BD0848006870473F
S31500007D50064A1368187110684171704700000000E8
S31500007D60385E0120067901203C5E0120405E01203C
S31500007D7080B57B49022003F008FAFF20FDF7E7F8FB
S31500007D80FF2003F050FDFF200CF0AAFF00F040F8A2
S31500007D90FDF763FD00207349088001BDF8B500F0CA
S31500007DA069F8009805B000F0010000BD18B587B06D
S31500007DB000226C4B1A8001A9684608F085F99DF8E7
S31500007DC00F00694C0822A070BDF80C0001A92080A4
S31500007DD0201DFEF7E3F99DF81400002200216073D0
S31500007DE02046FDF73BFD08B010BD80B5684608F09B
S31500007DF075F9932809D15D4801680A78012A8DF83A
S31500007E00002004BF02218DF800109DF8000002BD7D
S31500007E10F8B50DF0D7FA002814BF002002200DF0A7
S31500007E202EFF53480DF035FF52480DF035FF00F098
S31500007E3021F80098C1071BD54F49022003F0A5F988
S31500007E404A4801680878012808BF02200DF0D7FBD0
S31500007E500DF0BAFA00F00EF8009840F0800000909D
S31500007E6068460DF0EBFE00F008F8032003F022F957
S31500007E7005B000BD68460DF0D7BE78B58FB005A831
S31500007E803E49282204F070F807F061FF08B100208F
S31500007E901AE001A803F0FFF80400394D394E02D06C
S31500007EA00090394B0AE005A8FDF7D6FC05A901A804
S31500007EB00DF071FB040006D00090344B3246294683
S31500007EC0022003F062F9204610B070BD80B5254847
S31500007ED0018841F4007101800DF021FF48B102468E
S31500007EE02B49022003F051F90DF071FEBDE8014067
S31500007EF03EE701BD1FB504461A48008810F08F0FF3
S31500007F0011D0902C02D1FFF751FF1FBD912C25D027
S31500007F1002902048009001941F4B1A4A1F490220E4
S31500007F2003F033F91FBD800504D5912C16D1FFF758
S31500007F301FFF1FBDFFF79EFF902C0FD10098C107B2
S31500007F400CD5420852000092002101910291ADF831
S31500007F500C1068460DF072FE0EF051F91FBD0000C0
S31500007F6040AA0300647C012008750120106B0120E3
S31500007F70008810020070EF0510AA03005CAA030037
S31500007F8084AA030098AA0300A0AA0300B8AA0300C3
S31500007F90D0AA030038AB030020AB030000AB0300FC
S31500007FA01CB5DFF8AC4A0A2200212046FEF73DF94F
S31500007FB060220021DFF8B40CFEF737F9A0206080BC
S31500007FC0052120208DF80410009001AB10222121FC
S31500007FD0F220FEF758FB13BD0020DFF8741A00B537
S31500007FE008704FF0FF3187B00491002100238DF80F
S31500007FF01800039002900191009304AA0EF076FCFB
S3150000800007B000BD18B5DFF8484A207A87B0C10727
S3150000801010D5002204928DF818200EF0F1FF0020F2
S31500008020002100232072039102900190009304AA7C
S315000080300EF05CFC0020DFF8381C087008B010BD9C
S3150000804080B5FFF7C9FF0020DFF8281C087001BDC6
S315000080502DE9F04700F00108C0F342048946924634
S3150000806006094509DFF8100C016806F0010605F05F
S3150000807001050A685079F22826D1DFF8D4793878D4
S3150000808020B10FF0E6FAF98888421DD1B8F1000F49
S3150000809018D00FF0DEFAF8800120A021E207387030
S315000080A079807C7046BF4FF47A7101FB09F1DFF8E5
S315000080B0CC1B7D71DFF8BC0BFCF770FA26B187F894
S315000080C004A001E0FFF788FF0120BDE8F08700204B
S315000080D070472DE9F34F8FB0074615469846DDF8F1
S315000080E084900AA814210AF09DFB780A00F0030A7E
S315000080F0C7F341108DF81800F80A00F0070BDFF8F7
S31500008100900B002438400828DFF86C0B016808BF84
S31500008110A1460A79042A08BF01242B001A9D08BF2C
S315000081200AAB05B90AAD1F9E06B90AAE109ACDF87C
S31500008130008007F0070107A80FF044FB002854D081
S31500008140DFF8501B012003F026F800F0F1F84CD1BF
S31500008150BAF1010F49D09DF82400C0B1022844D1DC
S315000081600022082107A802F087FF00283DD107F06A
S315000081701800182839D0ABF10500022835D39DF830
S31500008180180068B9F8060BD47CBB85202BE007984D
S3150000819058B310F1070FEAD310F1010F25D1E6E726
S315000081A01E9A20981C9904921B9B9DF818200190FA
S315000081B00091CDF814900396029507A938460FF062
S315000081C07AFE38B1DFF88808417888070DD5FFF7C1
S315000081D003FF0AE0380708D50FF0A1FBFF2808BF08
S315000081E0002C02D18920FDF726FE012011B0BDE842
S315000081F0F08F2DE9F0438FB08146884616461D461E
S31500008200169C0AA814210AF00DFB04B90AAC00F06A
S315000082108FF84ED1189F2946179A199DF02F49D0ED
S31500008220F32F61D100228DF82420079200293CD13A
S3150000823010F043F880453AD1DFF8345A2878DFF851
S31500008240104810B1207A810764D507F082FD0B38FB
S3150000825040F0100004AA01238DF8100000210192BD
S31500008260009303910291F32307AA01200EF03EFB2F
S315000082700120207207F06DFD06F10B0188420BD03C
S3150000828001200B3600FA06F1002203200EF001FE53
S31500008290207A40F0FD0002E0207A40F002002072D1
S315000082A041F288312846FCF779F9012033E0FFF7DF
S315000082B0A9FE2FE019F007008DF8180008BF0491F9
S315000082C001D000F02BF80FF0F8FF804503D100F045
S315000082D036F8F0231AE000200021002303900291D3
S315000082E00190009304AA13E0F72F03DAA7F1B00375
S315000082F0102B0FD219F003008DF8180008BF049157
S3150000830001D000F00BF800F01AF83B4604AA012051
S315000083100EF0ECFA00200FB0BDE8F08302218DF8D4
S3150000832018108DF819200822214604A8FDF736BF3B
S31500008330DFF8440901680A685079F228704700207E
S3150000834000216A1C0390029101922B7800937047DA
S31500008350002070472DE9F0470446626888460021F0
S3150000836092B24046FDF7F8FD207C08F1020530B9CF
S31500008370A26800212846FDF7F4FD2D1D07E002281E
S3150000838005D1082204F1080100F09EF80835207C8A
S31500008390022804BF607C05F8010B6168880403D5D8
S315000083A0A28A00F096F8AD1C606841040FD5A07D46
S315000083B0002105F8010BA26928462D1DFDF7D1FD08
S315000083C0102204F11C0100F07FF8103507E080064A
S315000083D005D5A26900212846FDF7C3FD2D1D20798C
S315000083E04FF00C0A41060ED500F05EF800F061F879
S315000083F005D100F067F800F06AF800F04EF87F1C2F
S31500008400F9B20229F2DB6068C10517D500F04CF815
S31500008410FAB20AFB02F204F12C018E183378022B11
S3150000842008D1728800F055F8B288AD1C00F051F8FA
S3150000843000F033F87F1CF9B20229E9DB04F14400AD
S31500008440017805F8011B227902F01802182A1CBFD0
S31500008450407805F8010B6268100403D5120C00F091
S3150000846038F8AD1C6068C10312D500F01DF800F0A5
S3150000847020F809D100F026F800F029F899F8000054
S31500008480AD1C0A3089F800007F1CF9B20229EEDB28
S31500008490A5EB080188B2BDE8F08799F80000AD1C8D
S315000084A0401C89F8000070470027A94605F8017BA3
S315000084B07047FAB20AFB02F204F12C018E183378E7
S315000084C0032B70470822B11C2846FDF767BE728948
S315000084D0083500212846FDF73FBD2DE9F84F0F4628
S315000084E0B6B000F00701C0F3C1008DF8041000908B
S315000084F09346984607A81421002600250AF092F90B
S31500008500DFF874170968BBF1000F087908BF0DF191
S315000085101C0B00284DD109684879F2283CD10FA9D7
S31500008520E8B20FF081F9002836D19DF83C00FF280B
S3150000853018BF761C6D1CE8B20428F0DD9DF800011A
S31500008540F4B2DFF81C5906900098DFF81899DFF8A6
S3150000855018A960BB9DF804103A46CDF800805B462A
S315000085600CA80FF02FF9002800F07F800CA80FF060
S31500008570B2F90646FF2822D000200122FF230590EB
S315000085800490039202930194009000F074F80FA9EE
S3150000859030460FF049F900286BD1288809EB000115
S315000085A00FA8FFF7D7FE2988401828805BE00098BF
S315000085B001285AD19DF80001F6B2B04209D3002134
S315000085C005910491039106998B22029101940092E0
S315000085D047E00020059006980021FF2204910392AF
S315000085E002900194009100F046F800270024B84656
S315000085F09DF800B10FA95FFA88F00FF015F9002871
S3150000860037D19DF83C00FF2815D07F1CFAB2934560
S3150000861011D221A90FA8FFF79DFE0646288831181A
S3150000862052290ED2324621A94844FDF7B7FD2888C3
S31500008630641C36182E8008F101085FFA88F10429B7
S31500008640D8DD89F80640FDF7F4FB74280DD100202B
S315000086500590039006980021FFB2049102900197BD
S31500008660009100F008F8FDF7E4FB012037B0BDE803
S31500008670F08F0020FAE753460B2221210120FFF755
S31500008680EDBAF2282DE9F04F4FF0000AA7B008BF67
S315000086902129D0464CD1112A02BF802B30980028C0
S315000086A046D1319D052D43DD112003F0CDFBDFF8CA
S315000086B0B04726880027DFF8AC97361DB6B2B3461A
S315000086C06946F8B20FF0B0F830BB9DF80000FF28FD
S315000086D00FD012A96846FFF73DFE80463018854246
S315000086E01CDB424612A909EB06004644FDF756FD7F
S315000086F0B6B27F1CF8B20528E2DBA6EB0B065FEAF2
S315000087000A000ED1002003F090FB432003F08DFBFE
S31500008710B0B203F099FB06E000200AE04FF0890AA8
S31500008720EBE703F082FB20884FF00108361826801D
S31500008730404627B0BDE8F08F2DE9F04F8BB0C44E10
S31500008740307868B10A93187A002804BF1B68002B9A
S3150000875006D0199CE02C18BFE22C01D0179B0BB158
S31500008760012013E1DDF874901C9DDDF868A0DDF8AA
S315000087705480149F8DF824208DF8251083460FF021
S315000087809CFD9DF825100690189807919DF82410D9
S3150000879002900A98CDF820A0CDF814900495039481
S315000087A001970091437A024601684BEA071040EAB6
S315000087B0881444F400600EF0A8FFFFF7C6FA0446DA
S315000087C0F2202071607105200FF098FE707910B1CB
S315000087D000F012F80DE09DF82400A0F10C05E088E9
S315000087E0A57240F00200E0800A9811F0CBFA00F082
S315000087F088F800F039F9B3E7F1880020FFF77CBA72
S315000088002DE9F84F8AB005461C46207A002804BF99
S315000088102368002B73D030B9236813F1070F02D3F6
S3150000882013F1010F6BD102280AD10023D8B2205CC4
S3150000883018B95B1CDEB2082EF8DBDBB2082B5ED063
S31500008840169800285BD1179E237A3000159818BF1A
S3150000885043F008037E2D18BF7F2D03D143F4007328
S3150000886000B10420149D43EA8013DFF8E4912F0140
S3150000887047F4006799F805003B43ADF826300F46EC
S315000088808DF82420DDF868A0DDF87080DDF874B07E
S3150000889090B10FF012FD00F03AF8002E14BF202020
S315000088A005200FF02BFEFFF750FA00F0D9F8B9F8C3
S315000088B00610FFF7A2FF20E00FF0FFFC00F027F8FC
S315000088C0FFF743FA00F0CCF89DF82410A1F10C054F
S315000088D0C188857241F00201C18036B17F0900F07E
S315000088E0B9F83F0E2037B8B200E005200FF006FEBB
S315000088F0204611F047FA00F004F800F0B5F8012020
S3150000890044E00146EAB24FF6FD70FFF709BA069059
S315000089109DF864001899CDF820A003909DF82400D6
S315000089200797CDF814B0CDF810800291019500900C
S31500008930637A2168BDF8260022460EF0E6BE00E006
S3150000894000BF2DE9F84F8AB0DDF85080DDF854E01D
S31500008950DDF858C0179FDDF86090199EDDF868A015
S315000089601B9D1C9CDDF874B007950894CDF824B0C7
S31500008970CDF818A00596CDF810900397CDF808C04D
S31500008980CDF804E0CDF80080FFF73AFF0BB0BDE864
S31500008990F08F2DE9F84F8AB02D4E3478002C1EBF8B
S315000089A0347A04F00304012C4FD008257E2815984C
S315000089B0149C08BF4FF40275800140EA04108DF83C
S315000089C024200F4640F400602843ADF82600707955
S315000089D0DDF860B0DDF86480DDF868A01C9DDDF888
S315000089E0749068B10FF069FC00F041F8FFF7ADF93B
S315000089F000F036F820200FF081FDFFF7FDFE22E0A3
S31500008A001E460FF05AFC00F032F8FFF79EF900F010
S31500008A1027F87F099DF8241000F01CF8A1F10C043A
S31500008A20C1883F0E847241F00201C1802037B8B27E
S31500008A300FF064FD304611F0A5F90146E2B24FF69B
S31500008A40FD70FFF76DF900F00FF801209EE70000BA
S31500008A501064012007F00607C7F103077F07704778
S31500008A60F22101714171704700200FF047BD069059
S31500008A709DF82400CDF820A007970090BDF82600A9
S31500008A80CDF814900495CDF80C80CDF808B001947B
S31500008A900023002200210EF038BE2DE9F84F9AB0CF
S31500008AA02B9892460F4602461C46FF2A00F0D980B4
S31500008AB048214A43DFF8B43319680D1DAB58091D28
S31500008AC043F400738B5043F48063AB5008A90EF057
S31500008AD0ABFE002840F0C580079494F8089000216A
S31500008AE04FF00C0808FB01F208A8104490F82C007F
S31500008AF0002814BF032849F0080903D0022808BF3C
S31500008B0049F02009491C0229ECDB9DF82400299D27
S31500008B10279C01062499259848BF49F0100949EA7F
S31500008B208112E02D42EA002040F4A0401FFA80F9AD
S31500008B3018BFE12D03D1DFF83823107810B10CB13E
S31500008B4049F400698DF818A0289E01B95646DDF84B
S31500008B50B4B0DDF8B0A00FF0B0FBFF210591049092
S31500008B60CDF80CB0CDF808A00195009607987F09BE
S31500008B70437A02460168484607F006070EF08AFD6A
S31500008B80C7F103077F079DF818A03F0E07F12005E0
S31500008B904FF00009079FAAF1090B08FB09F108A885
S31500008BA0084400F12C063078002818BF03280ED19F
S31500008BB0FFF7CBF8F221002C0171417114BF202080
S31500008BC005200FF09BFC7189FFF717FE1DE00228B8
S31500008BD01DD1FFF7BAF8FFF743FFC18880F80AB046
S31500008BE000F04EF814BFA8B205200FF087FCB0883D
S31500008BF04FF6FF71884204BF384611F0C3F80146AC
S31500008C0070885FFA8BF2FFF75CF8FFF72DFF09F12A
S31500008C100109B9F1020FC0DB9DF82400010620D539
S31500008C20FFF793F8FFF71CFFC18880F80AA000F051
S31500008C3027F814BFA8B205200FF060FC099881043C
S31500008C4048BFBDF8348003D4384611F09BF88046FF
S31500008C50384611F097F852464146FFF732F8FFF7CB
S31500008C6003FF01201BB0BDE8F08F00001C6401204B
S31500008C70846401207C640120547401200071020088
S31500008C80002C41F00201C1809DF86410C17270474A
S31500008C900800020024830300012070472DE9F84FE5
S31500008CA007460D467248017A9EB01646C80703D598
S31500008CB09DF8B410E32910D1289C0B93200002BF25
S31500008CC06B490878002810D118460EF004FEFF28DC
S31500008CD00BD00CA90EF0A8FD00287BD10D984104FD
S31500008CE078D49DF84600002874D1002F8DF828709E
S31500008CF018BF7C2F05D07F2F6CD15D4908780028DE
S31500008D0068D05B4908788DF82A508DF829602A9D2D
S31500008D102B9EDDF8B090DDF8B8A02F9FDDF8C0805F
S31500008D20DDF8C4B000284DD0280003D000F06DF85F
S31500008D30FFF702FD9DF8B400E02836D02AD3E228DA
S31500008D401ED002D3E32820D024E09DF8A410E12011
S31500008D50059001910B9B9DF829209DF82A109DF8FE
S31500008D602800CDF824B0CDF820800797CDF818A0BC
S31500008D70CDF81090039602950094FFF7E0FD29E0E8
S31500008D8000F045F8FFF7DCFD24E000F040F8FFF7BF
S31500008D9000FE1FE09DF828107C290BD1A0F1E4020B
S31500008DA00C2A24BFB038102810D200F016F89DF80F
S31500008DB0280004E07F2909D100F00FF87E20FFF794
S31500008DC01FFD07E09DF8B400E22803D000F01DF86F
S31500008DD0FFF763FE1FB0BDE8F08F9DF8B4009DF865
S31500008DE0A4100590CDF824B00191CDF82080079706
S31500008DF0CDF818A0CDF810900396029500940B9B21
S31500008E009DF829209DF82A1070479DF8B4009DF81A
S31500008E10A41005900B9B01919DF829209DF82A101E
S31500008E209DF82800CDF824B0CDF820800797CDF81E
S31500008E3018A0CDF81090039602950094704700286C
S31500008E4000D0704710B50A4C207AC10707D50EF03E
S31500008E50D7F800202072BDE81040FFF7D3B810BD48
S31500008E60587C0120B86A012030830300C0530120DA
S31500008E7010640120912800D0704780B500F02AFECA
S31500008E8018B9BDE8014011F0A3B801BD1CB5059C99
S31500008E901CB1049C009403F0B1FC13BD30B502462E
S31500008EA0DFF8B4080023DFF8B45803E0D45C5B1C99
S31500008EB0604068438B42F9DB30BD02460846142306
S31500008EC02D21FDF7FDBE0A46014614232D20FDF790
S31500008ED022BF902808BF11F0A1B8704730B585B001
S31500008EE00024DFF87C586946E0B2FFF7E6FF9DF8FC
S31500008EF0010038B19DF8000020B918206043012117
S31500008F0028440174641C0E2CEDDB00F027FB05B031
S31500008F1030BD2DE9F04F00249FB0A046A346A146E0
S31500008F20002505A9E8B2FFF7C8FFFCF7BCFA18222E
S31500008F306A43DFF82C188E183268821A9DF81500DD
S31500008F4000280FD09DF81410002923D1BDF8201059
S31500008F504FF47A7359438A4208D3317C41B9BDF83C
S31500008F602210002900F0B6804B439A42C0F0B2802E
S31500008F7004A90391BDF81C1041220EAB0292019385
S31500008F8000919DF81A30BDF81820BDF81610FDF7AF
S31500008F9097FD002840F09E809DF81000FBF762FCCC
S31500008FA020B10EA802F0D0FF401C03E09DF810008F
S31500008FB007F06AFD5FFA80FA0AF10302DCB1207954
S31500008FC09DF815306188834204BFBDF816308B4288
S31500008FD00FD19DF81A30DB095B4504BFBDF81C3084
S31500008FE0434506D1DFF87C371F88D2B2D2199145A6
S31500008FF040DA00F07DF8FEF7A8FE04469DF81A0058
S31500009000DFF8641700915FEAD01BBDF81C20BDF89D
S31500009010161014BF002008200A23FEF714FE9DF840
S3150000902015004FF48A51E1802071BDF81C804FF085
S31500009030FF0900270AA9F8B204F07AF9002802BF4E
S315000090409DF829009DF81510884202BFBDF82A0038
S31500009050BDF81610884209D19DF835109DF82800F4
S315000090602246FCF74FFF484598BF81467F1CF8B261
S315000090700228DFDDBDF8180002F0E6FE9DF81000BC
S3150000908002F0D3FE51460EA802F00EFF0020307407
S31500009090FCF709FA3060002000909DF810000EAB36
S315000090A05246412818BF42280AD1AAF10101C9B285
S315000090B00DF13900FFF7F2FE00906B46042201E045
S315000090C0092A07D20020C6E90200194606F108005F
S315000090D0FDF764F86D1C0E2DFFF623AF1CB16188F9
S315000090E0207900F005F800F039FA1FB0BDE8F08FDE
S315000090F010B50C46FCF7E4FB08B9032C0BD1DFF8DE
S315000091006C06FEF7C7FDB42808BFFEF7D1FDBDE823
S315000091101040FEF7D8BD10BD2DE9F04F87B00546CB
S31500009120687D00262C7D0028DFF83C1600912F680C
S3150000913007BF08204FF0400800204FF080082A8A19
S3150000914007237988FEF77FFD8DF80580AA89A1B2ED
S31500009150C81C90427BDAA868641C415C8DF8061036
S31500009160A1B202F0CFFE80469DF80600A41C10B105
S31500009170012852D05BE0A868A1B2641C425CA1B28F
S31500009180A41C8DF80420AA894FF0000A02F0BAFE4A
S31500009190074600F066F881469DF80400FCF775FF67
S315000091A060B99DF8040007F06FFCAA898346A86899
S315000091B05B46A1B202F08FFE82465C44298A28688B
S315000091C09DF805300091418840794246FBF72AFC1C
S315000091D000281FBF80789DF8041088428D2727D16C
S315000091E0286841798DF80910286841889DF805009E
S315000091F0ADF80C80ADF80A108DF80E00298AADF88E
S315000092001470ADF81690ADF81010CDF818A002A89D
S3150000921000F0FEF9070099D00AE000F022F89DF868
S31500009220052003464146284600F0A4FAF2E78527C2
S31500009230384602F0FAFD9DF80600012602F0F5FD1B
S31500009240404602F001FE852F7FF480AF03E016B999
S31500009250002002F0EAFDFCF7ECFD012007B0BDE8B6
S31500009260F08FAA89A868A1B2A41C02F04BBE2DE912
S31500009270F04786B00746787D3D7DDFF8EC14002880
S3150000928000913C683A8A07BF08204FF0400800204A
S315000092904FF0800809236188FEF7D5FC13E0398A70
S315000092A0386843460091418840794A46FBF7BAFB45
S315000092B004001FD1862002F0B8FD002002F0B5FDA3
S315000092C0484602F0C1FDBA89A9B2CB1C9A4254DBCA
S315000092D0B8686D1C0024465CA9B202F013FEAD1CF2
S315000092E08146002EDBD0012E04D0852002F09DFDA4
S315000092F03046E3E74FF0000A01A95FFA8AF0FFF76C
S31500009300DCFD9DF80400B04201BF39689DF80500F8
S315000093104A7990421ED1BDF806004A88904204BFA1
S31500009320BDF80800484515D19DF80A00404502BF22
S31500009330BDF80C003A8A90420CD19DF8040000B3A7
S31500009340BDF81000FA88904202BF9DF81200097914
S31500009350884216D00AF1010A5FFA8AF00E28CBDBA2
S315000093608B20C3E75FFA89F002F05FFD4FEA192907
S31500009370641E2BE0BDF81400A3E7FCF75AFD01209C
S315000093802BE1002002F051FD304602F04EFD48462A
S3150000939002F05AFD16B1012EECD094E7002C92D0C3
S315000093A0A07802F042FDBDF8100002F04DFDBDF8B8
S315000093B0120002F049FDA078FCF767FE002882D172
S315000093C0A07807F061FB0446DDF81490E0B20028AF
S315000093D0C8D178E710B50024E0B200F001F9641CAA
S315000093E0E0B20E28F8DB0021DFF8840301700020CC
S315000093F010BDB12180B50E2802DA00F003F9002174
S31500009400084602BD2DE9F04387B006460F46904652
S3150000941099460E9C002502A9E8B2FFF74EFD9DF87D
S315000094200800002804BF9DF80900B0420FD1BDF81E
S315000094300A00B84204BFBDF80C00404507D19DF8AC
S315000094400E00484504BFBDF81000A04206D06D1CB2
S31500009450EAB20E2ADFDB07B0BDE8F0830F9F0020DB
S315000094602C460190109D384607F00EFB412F014611
S31500009470284618BF422F08D102F066FD0146681C37
S31500009480FFF70CFD019001A80421E4B218256C43F6
S31500009490B34E00912644D6E90223FCF72FFA044680
S315000094A00D463846FCF7F1FD012803D1002D08BF13
S315000094B0002C07D10028CED1002106988D4201D874
S315000094C08442C8D30122327400F048F8C3E710B5CD
S315000094D042784B789A4202BF42884B889A421AD108
S315000094E082888B889A4202BF82798B799A4212D1FE
S315000094F002890B899A4202BF02780C78A2420AD1ED
S315000095003AB182898B899A4202BF807B897B8842E5
S3150000951001D1012010BD002010BD30B585B0044634
S31500009520002500F096F921466846FFF7D0FF78B986
S3150000953000F08BF9F5DB002500F08BF99DF80100B2
S3150000954030B16D1CE9B20E29F6DBFF2005B030BD47
